:020000040800F2
:1000000000C00020F9110008A1090008A309000898
:10001000A5090008A7090008A909000800000000B8
:10002000000000000000000000000000AB09000814
:10003000AD09000800000000AF090008B109000880
:100040004112000841120008411200084112000844
:100050004112000841120008411200084112000834
:100060004112000841120008411200084112000824
:100070004112000841120008411200084112000814
:1000800041120008B9090008411200084112000895
:1000900041120008411200084112000841120008F4
:1000A00041120008411200084112000841120008E4
:1000B00041120008411200084112000841120008D4
:1000C00041120008411200084112000841120008C4
:1000D0004112000841120008C90900084112000835
:1000E00041120008411200084112000841120008A4
:1000F000D909000841120008411200084112000805
:100100004112000841120008411200084112000883
:100110004112000841120008ED090008150A000804
:100120004112000841120008411200084112000863
:1001300000000000000000000000000000000000BF
:1001400000000000000000000000000000000000AF
:10015000000000000000000000000000000000009F
:10016000000000000000000000000000000000008F
:10017000000000000000000000000000000000007F
:10018000000000000000000000000000000000006F
:10019000000000000000000000000000000000005F
:1001A000000000000000000000000000000000004F
:1001B000000000000000000000000000000000003F
:1001C000000000000000000000000000000000002F
:1001D000000000000000000000000000000000001F
:0401E0005FF8E0F1F3
:1001E40010B5054C237833B9044B13B10448AFF36D
:1001F40000800123237010BD4C0400200000000087
:100204009435000808B5034B1BB103490348AFF309
:10021400008008BD00000000500400209435000850
:1002240000B583B00A4B5A6942F001025A615B6916
:1002340003F001030193019B00221146112001F0F8
:100244006FF8112001F0A4F803B05DF804FB00BFBF
:10025400001002402DE9F04188B000240494059474
:10026400069407942A4B9A6942F020029A619A698B
:1002740002F020020092009A9A6942F010029A61F8
:100284009A6902F010020192019A9A6942F00402FA
:100294009A619A6902F004020292029A9A6942F0FF
:1002A40008029A619B6903F008030393039B194DA9
:1002B40022468F21284601F099FC174F22464FF41D
:1002C4007041384601F092FC8F2304930126059671
:1002D40006944FF00208CDF81C8004A9284601F0CA
:1002E40065FB4FF47043049305960694CDF81C8087
:1002F40004A9384601F05AFB40230493059406965A
:1003040004A9284601F052FB08B0BDE8F08100BF03
:100314000010024000100140000C014072B6FEE7DC
:1003240000B591B02822002106A803F06FF800233D
:1003340001930293039304930593012206924FF4CD
:10034400803307930A9202220D920E934FF4E01326
:100354000F9306A801F066FC80B90F2301930221D4
:100364000291002303934FF480620492059301A841
:1003740001F08AFE20B911B05DF804FBFFF7CEFF4F
:10038400FFF7CCFF08B500F081FFFFF7C9FFFFF7C7
:1003940061FFFFF745FF00F0DDFD00F051FB00F0C9
:1003A40081FB00F0B1FB00F0E1FB00F0ABFE00F0DC
:1003B4000FFC00F035FC00F05BFC00F02DF800F0C1
:1003C400F9F800F069F900F0FBF90D4801F0FAFFC3
:1003D4000C4801F0F7FF0C4C01228021204601F06B
:1003E40005FC4FF4FA7000F075FF002280212046CE
:1003F40001F0FCFB4FF4FA7000F06CFFEBE700BF78
:1004040098060020E0060020001001400368586AA6
:1004140000225A6200B2704708B53C21074802F036
:1004240083FB3C21064802F07FFB3C21054802F097
:100434007BFB3C21044802F077FB08BD300500201B
:1004440078050020C00500200806002008B50448EF
:10045400FFF7DCFF034A13680344136008BD00BFC1
:10046400300500200000002008B50448FFF7CEFF47
:10047400034A53680344536008BD00BF7805002055
:100484000000002008B50448FFF7C0FF034A936842
:100494000344936008BD00BFC00500200000002095
:1004A40008B50448FFF7B2FF034AD3680344D36096
:1004B40008BD00BF0806002000000020032809D85A
:1004C400054B53F82030054A82FB0312D817C0EBC2
:1004D4006210704700207047000000201F85EB5118
:1004E400002304E0034A002142F823100133032BC4
:1004F400F8DD7047000000202DE9F0410C46032888
:100504003DD8DFE800F00221131A01270221254D0E
:100514000026B4F57A7F21DC234B9C42B8BF1C46ED
:10052400002C16DB4FF0000801221CE04FF480572A
:100534004FF400511D4D0826EBE74FF480474FF46C
:1005440000411A4D0C26E4E704270821154D3E46C8
:10055400DFE764424FF00108002204E04FF0000896
:1005640001224FF47A74284601F040FB4246394692
:10057400284601F03BFB26B90D4B1B685C63BDE8C4
:10058400F081042E05D0082E07D0094B1B681C648B
:10059400F5E7074B1B689C63F1E7054B1B68DC63BD
:1005A400EDE700BF0010014018FCFFFF000C014004
:1005B400E804002010B5094C0021204602F03AFA64
:1005C4000421204602F036FA0821204602F032FACD
:1005D4000C21204602F02EFA10BD00BFE8040020D2
:1005E40070B50E4615461C4601460020FFF784FFF1
:1005F40031460120FFF780FF29460220FFF77CFFE8
:1006040021460320FFF778FF70BD000084468A1A54
:100614001A4951F83030134441F8303018498B42AC
:100624001FDD164B43F83010144B53F83C304FF495
:10063400487101FB03F341F27C5101FB0233114980
:1006440081FB0301D817C0EB61100F498B420FDC0B
:100654000E498B420FDB094B03EBCC0CCCF8042086
:1006640070470B498B42DFDA044B43F83010DBE769
:100674004FF47A70EFE70748EDE700BF6804002005
:10068400A08601001F85EB5103870100FD78FEFF62
:100694006079FEFF18FCFFFF08B50C4801F092FEDC
:1006A400002310E00A49002241F8332001EBC30182
:1006B4004A60084941F82320074941F823200749A3
:1006C40041F823200133032BECDD08BD5006002044
:1006D40068040020A8040020980400208804002056
:1006E400F8B506460D4614460168124F3B785BB2D6
:1006F4002A6819440020FFF789FF206071687B781D
:100704005BB26A6819440120FFF780FF6060B1683A
:10071400BB785BB2AA6819440220FFF777FFA06098
:10072400F168FB785BB2EA6819440320FFF76EFFB7
:10073400E060F8BDD004002038B5FFF787FE0C4D0B
:100744002860FFF791FE6860FFF79CFEA860FFF742
:10075400A7FEE860074C224629460748FFF7C0FF7A
:10076400E368A26861682068FFF73AFF38BD00BFFC
:100774009804002088040020A8040020002306E038
:100784005A1C10F902C00B4901F803C0D3B2032B61
:10079400F6D9437903F00103074A1370002305E0F7
:1007A4009A1D8156054AD1540133DBB2032BF7D984
:1007B400704700BFD4040020CC040020D0040020E3
:1007C40008B501220249034802F0E9FD08BD00BF53
:1007D400C30400209807002038B5384B1C78E4B2D5
:1007E400374D2B783748C4540133374AA2FB031CD6
:1007F4000CF4FF7101EB5C015B1ADBB22B70A2FB02
:10080400032101F0FE0202EB51029A1A825C212AB2
:100814000AD02E4B1B78012B33D0022B3ED033B39E
:100824002A4B00221A703EE05A1C2749A1FB020100
:1008340001F4FF7000EB5101521A22498A5C402AEC
:10084400E7D10233204AA2FB031202F4FF7101EB49
:1008540052029B1A1B4AD35C212BDAD1FFF740FECC
:10086400184A00239370537013702B70D1E7232C14
:1008740019D1174B1C700123164A1370134A1370B5
:1008840011E0144A13781249CC540133DBB21370CB
:10089400092B08D90D4B02221A7004E0212C08D030
:1008A4000A4B00221A70012204490B4802F077FD1A
:1008B40038BD07488472FFF761FFF1E7C3040020E5
:1008C400CB040020C8040020ABAAAAAAC5040020B7
:1008D400B8040020C4040020980700200022032A42
:1008E4002ED810B415E011F1640F01DAA4F16403F9
:1008F400144941F82030144981FB0341DB17C3EB51
:10090400A1131BB2114941F820300132D2B2032A9B
:1009140014D810460E4B9B5C5BB24FF47A7101FB0A
:1009240003F3084951F822400A4909780029DFD025
:10093400191B6429D7DD04F16403D9E710BC70479F
:10094400704700BFD8040020D34D6210A8040020D3
:10095400D4040020CC04002082B00E4B9A6942F0EB
:1009640001029A619A6902F001020092009ADA691E
:1009740042F08052DA61DB6903F080530193019BFA
:10098400054A536823F0E06343F00073536002B0F8
:10099400704700BF0010024000000140FEE7FEE780
:1009A400FEE7FEE7FEE770477047704708B500F0C2
:1009B4007FFC08BD08B5024800F082FE08BD00BFF8
:1009C4005407002008B5024802F08AFB08BD00BFA6
:1009D4009807002008B500F061FB024801F033FDE0
:1009E40008BD00BFE006002008B5084B1B681A6963
:1009F40012F0010F03D1054801F025FD08BD6FF089
:100A040001021A61FFF798FEF5E700BF50060020C7
:100A140008B5FFF763FF024801F015FD08BD00BFEC
:100A24009806002008B50268034B9A4200D008BD1E
:100A3400FFF7D2FEFBE700BF004400407047000010
:100A440000B58DB02422002103A802F0DFFC0023AE
:100A54000193029312484FF0804202604360836026
:100A64004FF6FF72C2600361836103230393012382
:100A74000593099303A901F041FE50B900230193A2
:100A8400029301A9064802F0B5F828B90DB05DF843
:100A940004FBFFF743FCF1E7FFF740FCF6E700BF78
:100AA4003005002000B58DB02422002103A802F0F7
:100AB400ADFC0023019302931148124A0260436083
:100AC40083604FF6FF72C260036183610323039363
:100AD40001230593099303A901F010FE50B90023E3
:100AE4000193029301A9064802F084F828B90DB0D5
:100AF4005DF804FBFFF712FCF1E7FFF70FFCF6E7E4
:100B0400780500200004004000B58DB024220021A7
:100B140003A802F07BFC0023019302931148124ABC
:100B24000260436083604FF6FF72C26003618361B9
:100B34000323039301230593099303A901F0DEFD25
:100B440050B900230193029301A9064802F052F818
:100B540028B90DB05DF804FBFFF7E0FBF1E7FFF700
:100B6400DDFBF6E7C00500200008004000B58DB0AD
:100B74002422002103A802F049FC002301930293DC
:100B84001148124A0260436083604FF6FF72C260EC
:100B9400036183610323039301230593099303A949
:100BA40001F0ACFD50B900230193029301A906485A
:100BB40002F020F828B90DB05DF804FBFFF7AEFB96
:100BC400F1E7FFF7ABFBF6E708060020000C004056
:100BD40000B583B00023009301930F480F4A0260CD
:100BE40047224260836040F2E733C360802383611D
:100BF40001F02CFD50B90023009301936946064887
:100C040001F0F8FF28B903B05DF804FBFFF786FB99
:100C1400F1E7FFF783FBF6E75006002000100040E1
:100C240000B583B00023009301930F480F4A02607C
:100C340041F61F42426083600922C260836101F071
:100C440005FD50B90023009301936946064801F05D
:100C5400D1FF28B903B05DF804FBFFF75FFBF1E7B0
:100C6400FFF75CFBF6E700BF980600200014004085
:100C740000B587B000230293039304930593009374
:100C840001931648164A026041F61F42426083608F
:100C940040F2F312C260036143618023836101F077
:100CA400D5FC90B94FF48053029302A90B4801F08C
:100CB40033FE68B90023009301936946074801F0A5
:100CC40099FF40B907B05DF804FBFFF727FBE9E79C
:100CD400FFF724FBEEE7FFF721FBF3E7E006002034
:100CE400003401400268094B9A4200D0704782B038
:100CF40003F564439A6942F400629A619B6903F4C0
:100D040000630193019B02B0704700BF002C0140B7
:100D140000B58FB000230A930B930C930D930368D3
:100D2400B3F1804F0BD0484A93423FD0474A934295
:100D340056D0474A93426DD00FB05DF804FB03F5DB
:100D44000433DA6942F00102DA61DA6902F001027D
:100D54000192019A9A6942F004029A619A6902F036
:100D640004020292029A9A6942F008029A619B690B
:100D740003F008030393039B4FF400430A930AA967
:100D8400344800F013FE08230A9300230B930C93BA
:100D94000AA9314800F00AFE304A536823F440732C
:100DA40043F0E06343F480735360C5E72C4BDA6986
:100DB40042F00202DA61DA6902F002020492049A51
:100DC4009A6942F004029A619B6903F00403059353
:100DD400059BC0230A930AA91E4800F0E7FDABE770
:100DE4001F4BDA6942F00402DA61DA6902F00402A4
:100DF4000692069A9A6942F008029A619B6903F086
:100E040008030793079BC0230A930AA9124800F01A
:100E1400CDFD91E7124BDA6942F00802DA61DA6932
:100E240002F008020892089A9A6942F004029A6150
:100E34009B6903F004030993099B03230A930AA9FA
:100E4400044800F0B3FD77E70004004000080040C8
:100E5400000C004000080140000C0140000001406B
:100E64000010024000B585B00368224A934208D0BE
:100E7400214A934218D0214A934228D005B05DF804
:100E840004FB1F4BDA6942F01002DA61DB6903F0FC
:100E940010030193019B00221146362000F040FA12
:100EA400362000F075FAE9E7154BDA6942F02002C2
:100EB400DA61DB6903F020030293029B00221146EE
:100EC400372000F02DFA372000F062FAD6E70C4BF9
:100ED4009A6942F400529A619B6903F400530393A4
:100EE400039B002211462C2000F01AFA2C2000F05B
:100EF4004FFAC3E7001000400014004000340140E2
:100F04000010024000B587B00023029303930493BA
:100F1400059302680D4B9A4202D007B05DF804FBBA
:100F240003F564439A6942F004029A619B6903F0F1
:100F340004030193019B4FF4706302930223039310
:100F4400059302A9024800F031FDE6E7002C0140B8
:100F54000008014010B592B0002410941194099433
:100F64000A940B940C940D940E940F942022214611
:100F740001A802F04BFA3148314B0360022343606D
:100F8400846040F2E733C36004614461846101F02A
:100F940089FB00283CD100231093119310A9274802
:100FA40001F028FE002836D16023099300220A921A
:100FB4000B920C920D920E920F9209A91F4801F008
:100FC40031FC58BB042209A91C4801F02BFC40BB8E
:100FD400082209A9194801F025FC28BB0C2209A9FB
:100FE400164801F01FFC10BB0023019302930393E6
:100FF400049305934FF400520692089301A90F48F5
:1010040001F036FEB0B90D48FFF77CFF12B010BDF9
:10101400FFF784F9BFE7FFF781F9C5E7FFF77EF92A
:10102400D0E7FFF77BF9D3E7FFF778F9D6E7FFF7C7
:1010340075F9D9E7FFF772F9E5E700BFE804002086
:10104400002C014038B5124C232304F8013B002343
:1010540005E0104AD25C52B224F8022B0133032B70
:10106400F7DD002505E0E8B2FFF728FA44F8040BA1
:101074000135032DF7DD002305E0074A52F823204C
:1010840044F8042B0133032BF7DD2123237038BDEF
:1010940028070020D40400209804002008B5084B39
:1010A4001B7803B108BDFFF7CDFF2A220549064886
:1010B40001F0F2FE0028F5D1014B01221A70F1E78C
:1010C4005207002028070020980700200268044BDC
:1010D4009A4200D07047034B00221A70FAE700BF0F
:1010E40000440040520700200268044B9A4200D09A
:1010F4007047034B00221A70FAE700BF0044004017
:101104005207002008B50A480A4B03604FF4E13344
:10111400436000238360C36003610C2242618361E6
:10112400C36101F089FE00B908BDFFF7F7F8FBE7DA
:10113400980700200044004070B586B00023029355
:101144000393049305930268264B9A4201D006B098
:1011540070BD044603F5E633DA6942F40032DA611D
:10116400DA6902F400320092009A9A6942F00402A9
:101174009A619B6903F004030193019B0423029386
:101184000223039303230593174E02A9304600F06C
:101194000DFC082302930025039504950DEB030130
:1011A400304600F003FC1148114B036010234360E8
:1011B40085608023C360056145618561C56100F078
:1011C4001FF958B9094BA3635C620022114626201B
:1011D40000F0A6F8262000F0DBF8B8E7FFF79EF849
:1011E400F0E700BF0044004000080140540700201D
:1011F40080000240FFF722FC0B480C490C4A0023F4
:1012040002E0D458C4500433C4188C42F9D3094AB8
:10121400094C002301E013600432A242FBD302F024
:10122400D1F8FFF7AFF87047000000204C0400200D
:10123400E83500084C040020E8070020FEE7000021
:1012440010B504460E4B18784FF47A73B3FBF0F3E1
:101254000C4A1068B0FBF3F000F0A8F868B90F2C42
:1012640001D901200AE0002221464FF0FF3000F0AE
:1012740057F8054B1C60002000E0012010BD00BFA2
:1012840014000020100000201800002008B5074AB0
:10129400136843F010031360032000F02FF80F20AD
:1012A400FFF7CEFFFFF758FB002008BD00200240E7
:1012B400034A1168034B1B780B441360704700BF4B
:1012C400E007002014000020014B1868704700BF9D
:1012D400E007002038B50446FFF7F6FF0546B4F1F1
:1012E400FF3F02D0044B1B781C44FFF7EDFF401B6B
:1012F400A042FAD338BD00BF14000020074AD368C7
:1013040023F4E0631B041B0C000200F4E0600343BD
:1013140043F0BF6343F40033D360704700ED00E053
:1013240000B5194BDB68C3F30223C3F1070CBCF10E
:10133400040F28BF4FF0040C03F1040EBEF1060F96
:1013440018D9033B4FF0FF3E0EFA0CFC21EA0C01C6
:1013540099400EFA03F322EA0303194300280BDB36
:101364000901C9B200F1604000F5614080F8001342
:101374005DF804FB0023E5E700F00F000901C9B2A2
:10138400024B1954F4E700BF00ED00E014ED00E057
:10139400002807DB00F01F02400901239340024AA2
:1013A40042F82030704700BF00E100E00138B0F19E
:1013B400807F0BD24FF0E0235861054AF02182F878
:1013C40023100020986107221A617047012070479A
:1013D40000ED00E030B40124056CAC40C56B6C60DA
:1013E400046863604368102B05D003689960036840
:1013F400DA6030BC704703689A600368D960F8E724
:1014040000283AD010B4024600681D4B984229D8EF
:101414001C4B03441C49A1FB03131B099B001364CD
:101424001A4BD363022382F82130016821F47F51DF
:1014340021F03001536894682343D468234314692A
:1014440023435469234394692343D46923430B43BB
:10145400036000209063012382F8213082F8200089
:1014640010BC70470A4B03440749A1FB03131B0933
:101474009B001364074BD363D4E70120704700BF7C
:1014840007040240F8FFFDBFCDCCCCCC00000240E5
:10149400F8FBFDBF0004024038B5044690F8200074
:1014A400012832D0012084F8200094F82100C0B231
:1014B400012804D0002384F82030022038BD022003
:1014C40084F821000020A0632568286820F001002A
:1014D40028602046FFF77EFFE36A5BB12268136849
:1014E40043F00E0313602268136843F00103136092
:1014F4000020E3E72268136823F0040313602268E2
:10150400136843F00A031360EDE70220D6E790F86E
:101514002130DBB2022B06D004238363002380F83E
:101524002030012070470268136823F00E03136013
:101534000268136823F001031360036CC16B01227A
:1015440002FA03F34B6080F82120002380F8203056
:101554001846704708B590F82130DBB2022B03D04F
:1015640004238363012008BD0268136823F00E037B
:1015740013600268136823F00103136003684C4A84
:1015840093424ED9783A934224D01432934230D0C5
:10159400143293422FD0143293422FD014329342F8
:1015A4002FD0143293422FD0143293422FD002F50D
:1015B400627293422ED0143293422DD0143293424D
:1015C4002CD01432934202D04FF4803203E04FF413
:1015D400805200E00122374B5A60012380F8213009
:1015E400002380F82030436B002B5ED09847002006
:1015F400B9E71022EFE74FF48072ECE74FF4805222
:10160400E9E74FF48032E6E74FF48012E3E74FF066
:101614008072E0E70122DEE71022DCE74FF48072FB
:10162400D9E7254A934224D01432934225D0143268
:10163400934224D01432934224D01432934224D0BF
:101644001432934224D01432934224D002F56272AD
:10165400934223D01432934222D01432934221D0A5
:101664001432934202D04FF4803203E04FF480529C
:1016740000E00122114B5A60AFE71022FAE74FF461
:101684008072F7E74FF48052F4E74FF48032F1E7C9
:101694004FF48012EEE74FF08072EBE70122E9E7A6
:1016A4001022E7E74FF48072E4E700205BE700BF15
:1016B4008000024000040240080002400000024092
:1016C40038B5C36B1A6804682568016C04238B4021
:1016D400134200F09B8015F0040F00F097802368FC
:1016E40013F0200F03D1236823F00403236003685D
:1016F4009A4A934246D9783A934224D01432934278
:1017040028D01432934227D01432934227D0143273
:10171400934227D01432934227D01432934227D0D5
:1017240002F56272934226D01432934225D01432C9
:10173400934224D01432934202D04FF4802203E027
:101744004FF4804200E00422854B5A60C36A03B11F
:10175400984738BD4022F7E74FF48062F4E74FF42E
:101764008042F1E74FF48022EEE74FF48002EBE78A
:101774004FF08062E8E70422E6E74022E4E74FF412
:101784008062E1E7774A934224D01432934225D011
:101794001432934224D01432934224D0143293420C
:1017A40024D01432934224D01432934224D002F52C
:1017B4006272934223D01432934222D01432934261
:1017C40021D01432934202D04FF4802203E04FF42C
:1017D400804200E00422644B5A60B7E74022FAE7F3
:1017E4004FF48062F7E74FF48042F4E74FF480222D
:1017F400F1E74FF48002EEE74FF08062EBE704225A
:10180400E9E74022E7E74FF48062E4E702238B40F4
:10181400134200F0AB8015F0020F00F0A78023689C
:1018240013F0200F06D1236823F00A032360012359
:1018340080F821300368494A93424BD9783A93425D
:1018440024D0143293422DD0143293422CD014322B
:1018540093422CD0143293422CD0143293422CD085
:10186400143293422CD002F5627293422BD014327C
:1018740093422AD01432934229D01432934202D094
:101884004FF4003203E04FF4005200E00222344BE4
:101894005A60002380F82030836A002B3FF459AF4C
:1018A400984756E72022F2E74FF40072EFE74FF42F
:1018B4000052ECE74FF40032E9E74FF40012E6E798
:1018C4004FF00072E3E70222E1E72022DFE74FF462
:1018D4000072DCE7234A934224D01432934225D089
:1018E4001432934224D01432934224D014329342BB
:1018F40024D01432934224D01432934224D002F5DB
:101904006272934223D01432934222D0143293420F
:1019140021D01432934202D04FF4003203E04FF44A
:10192400005200E00222104B5A60B2E72022FAE78C
:101934004FF40072F7E74FF40052F4E74FF400322B
:10194400F1E74FF40012EEE74FF00072EBE70222EA
:10195400E9E72022E7E74FF40072E4E78000024061
:10196400000402400800024000000240082303FA79
:1019740001F111423FF4EDAE15F0080F3FF4E9AE6A
:10198400236823F00E032360026CC16B012303FA66
:1019940002F24A60836380F82130002380F820300B
:1019A400036B002B3FF4D5AE9847D2E670B582B0F6
:1019B4000024A446B0E0874DAA4210D007D9864D32
:1019C400AA420CD005F58035AA4208D013E0A5F54B
:1019D4008015AA4203D005F57025AA4207D18A686A
:1019E400002A62D0012A5BD04361082403E0A5F5F4
:1019F4008015AA42F3D0BEF1FF0F58D80646BEF1B7
:101A0400FF0F56D84FEA8C0233680F25954023EA1E
:101A1400050304FA02F2134333604B6813F0805F4A
:101A240078D06E4B9A6942F001029A619B6903F087
:101A340001030193019B4FEA9C02951C684B53F8E8
:101A440025600CF003039D000F23AB4026EA030638
:101A5400644B984233D003F58063984200F0988039
:101A640003F58063984200F0958003F58063984203
:101A740000F0928003F58063984200F08F8003F5B4
:101A84008063984219D006231AE0CC68B3E7CC6887
:101A94000434B0E7CC680834ADE7CC680C34AAE76A
:101AA40003610824A7E70024A5E70424A3E7061D8F
:101AB400A5E7ACF108029200A6E7052300E00023A5
:101AC400AB4033430232464D45F822304B6813F4A1
:101AD400801F65D0444A936843EA0E0393604B68C1
:101AE40013F4001F62D0404AD36843EA0E03D36064
:101AF4004B6813F4003F5FD03B4A536843EA0E033C
:101B040053604B6813F4803F5CD0374A136843EA50
:101B14000E0313600CF1010C0A6832FA0CF357D06F
:101B2400012303FA0CF302EA030E33EA0202F1D1B1
:101B34004A68122A3FF63FAF122A3FF65CAF01A56E
:101B440055F822F0E31900088F1A0008991A0008C2
:101B5400AB1A0008FB190008FB190008FB19000860
:101B6400FB190008FB190008FB190008FB19000801
:101B7400FB190008FB190008FB190008FB190008F1
:101B8400FB190008FB190008931A00089F1A0008A3
:101B9400012395E7022393E7032391E704238FE7C7
:101BA400114A936823EA0E03936098E70E4AD368B8
:101BB40023EA0E03D3609BE70B4A536823EA0E0320
:101BC40053609EE7084A136823EA0E031360A1E7F3
:101BD40002B070BD0000221000003110001002405D
:101BE4000000014000080140000401400AB1016105
:101BF400704709040161704782B0084B1B68084AAA
:101C0400A2FB03235B0A00FB03F3019300BF019BC8
:101C14005A1E0192002BF9D102B070471000002027
:101C2400D34D6210002800F0F18170B582B00446F3
:101C3400036813F0010F2CD0994B5B6803F00C037D
:101C4400042B1DD0964B5B6803F00C03082B12D0B9
:101C54006368B3F5803F41D0002B55D103F1804335
:101C640003F504331A6822F480321A601A6822F4E5
:101C740080221A6037E08A4B5B6813F4803FE7D018
:101C8400874B1B6813F4003F03D06368002B00F0FC
:101C9400BF81236813F0020F75D0814B5B6813F08A
:101CA4000C0F5FD07E4B5B6803F00C03082B54D001
:101CB4002369002B00F08A807A4B01221A60FFF717
:101CC40003FB0546764B1B6813F0020F75D1FFF733
:101CD400FBFA401B0228F5D903209EE1704A1368E1
:101CE40043F480331360636843B3FFF7EDFA0546AA
:101CF4006B4B1B6813F4003FCBD1FFF7E5FA401B95
:101D04006428F5D9032088E1B3F5A02F09D0644BEA
:101D14001A6822F480321A601A6822F480221A6047
:101D2400E1E703F18043A3F53C331A6842F48022CF
:101D34001A601A6842F480321A60D4E7FFF7C4FAD2
:101D44000546574B1B6813F4003FA2D0FFF7BCFABB
:101D5400401B6428F5D903205FE1514B5B6813F401
:101D6400803FA5D14E4B1B6813F0020F03D02369AB
:101D7400012B40F04F814A4A136823F0F80361694C
:101D840043EAC1031360236813F0080F33D0A36937
:101D9400002B5CD0434B0122C3F88024FFF794FA54
:101DA40005463F4B5B6A13F0020F21D1FFF78CFA13
:101DB400401B0228F5D903202FE1394A136823F088
:101DC400F803616943EAC1031360DCE7354B002281
:101DD4001A60FFF779FA0546314B1B6813F0020FBE
:101DE400D1D0FFF771FA401B0228F5D9032014E182
:101DF4000120FFF701FF236813F0040F00F0968021
:101E0400274BDB6913F0805F34D1254BDA6942F04C
:101E14008052DA61DB6903F080530193019B012551
:101E2400214B1B6813F4807F26D0E368012B3DD03F
:101E3400002B53D103F1804303F504331A6A22F0D3
:101E440001021A621A6A22F004021A6233E0154B84
:101E54000022C3F88024FFF737FA0546104B5B6A6B
:101E640013F0020FC7D0FFF72FFA401B0228F5D951
:101E74000320D2E00025D3E70B4A136843F48073B0
:101E84001360FFF721FA0646074B1B6813F4807FA3
:101E9400CBD1FFF719FA801B6428F5D90320BCE0E5
:101EA4000010024000004242007000405F4A136A82
:101EB40043F001031362E36833B3FFF705FA064600
:101EC4005A4B1B6A13F0020F2FD1FFF7FDF9801B49
:101ED40041F288339842F3D903209EE0052B09D0C0
:101EE400524B1A6A22F001021A621A6A22F00402A0
:101EF4001A62E0E74D4B1A6A42F004021A621A6A47
:101F040042F001021A62D6E7FFF7DEF90646474BB4
:101F14001B6A13F0020F08D0FFF7D6F9801B41F2B9
:101F240088339842F3D9032077E0E5B9E369002BBD
:101F340072D03E4A526802F00C02082A56D0022B94
:101F440017D03B4B00221A66FFF7BEF90446374B05
:101F54001B6813F0007F47D0FFF7B6F9001B022877
:101F6400F5D9032059E0314AD36923F08053D36172
:101F7400DCE72F4B00221A66FFF7A6F905462B4B28
:101F84001B6813F0007F06D0FFF79EF9401B022860
:101F9400F5D9032041E0236AB3F5803F1AD02349E1
:101FA4004B6823F47413226A606A024313434B6040
:101FB4001F4B01221A66FFF787F904461B4B1B6867
:101FC40013F0007F0ED1FFF77FF9001B0228F5D92B
:101FD400032022E0154A536823F40033A1680B431D
:101FE4005360DCE7002018E0002016E0012B16D037
:101FF4000E4B5B6803F48031226A914211D103F4E1
:102004007013626A93420ED1002006E001207047EB
:10201400012002E0012000E0002002B070BD012098
:10202400FBE70120F9E70120F7E700BF00100240B9
:10203400000042420F4B5B6803F00C02082A01D0F7
:102044000D487047C3F383420C49885C13F4803F06
:102054000BD0084B5B68C3F34043094AD35C064A80
:1020640002FB00F0B0FBF3F07047064B03FB00F0FB
:10207400704700BF0010024000127A00C435000807
:10208400D435000800093D00002800F0A08070B598
:102094000D460446524B1B6803F007038B420BD2D8
:1020A4004F4A136823F007030B431360136803F0CC
:1020B40007038B4240F08D80236813F0020F17D082
:1020C40013F0040F04D0474A536843F4E0635360A9
:1020D400236813F0080F04D0424A536843F4605352
:1020E4005360404A536823F0F003A1680B435360E4
:1020F400236813F0010F31D06368012B20D0022B29
:1021040025D0384A126812F0020F64D035494A6863
:1021140022F0030213434B60FFF7D6F80646314B17
:102124005B6803F00C036268B3EB820F16D0FFF711
:10213400CBF8801B41F288339842F0D9032045E064
:10214400284A126812F4003FE0D101203EE0254AFB
:10215400126812F0007FD9D1012037E0204B1B68B0
:1021640003F00703AB420AD91D4A136823F007039F
:102174002B431360136803F00703AB422DD123688C
:1021840013F0040F06D0174A536823F4E063E168A0
:102194000B435360236813F0080F07D0114A5368A8
:1021A40023F46053216943EAC1035360FFF742FFFC
:1021B4000C4B5B68C3F303130B4AD35CD8400B4B43
:1021C40018600B4B1868FFF73BF8002070BD012026
:1021D40070470120FAE70120F8E70120F6E700BF85
:1021E4000020024000100240AC350008100000201E
:1021F40018000020014B1868704700BF1000002031
:1022040008B5FFF7F7FF044B5B68C3F30223034AE7
:10221400D35CD84008BD00BF00100240BC350008A4
:1022240008B5FFF7E7FF044B5B68C3F3C223034A17
:10223400D35CD84008BD00BF00100240BC35000884
:1022440030B4036A026A22F00102026242688469BD
:1022540024F073040D682C4323F0020C8B6843EACA
:102264000C03104DA84203D005F50065A84205D122
:1022740023F00803CD682B4323F00403094DA8423F
:1022840003D005F50065A84205D122F440724D69DA
:102294002A438D692A43426084614A684263036227
:1022A40030BC7047002C014030B4036A026A22F447
:1022B400807202624268C46924F0730C0C6844EAB8
:1022C4000C0523F400738C6843EA0423114CA042E8
:1022D40003D004F50064A04206D123F40063CC6863
:1022E40043EA042323F480630A4CA04203D004F598
:1022F4000064A04207D122F440524C6942EA04121D
:102304008C6942EA04124260C5614A68C26303628E
:1023140030BC7047002C014030B4036A026A22F4D6
:10232400805202624468C26922F4E6420D6842EABD
:10233400052223F400538D6843EA0533094DA8426E
:1023440003D005F50065A84204D124F480444D6906
:1023540044EA85144460C2614A680264036230BC82
:10236400704700BF002C014010B4036A046A24F0D3
:1023740001040462846924F0F00C4CEA021223F094
:102384000A030B438261036210BC704710B4036AF2
:10239400046A24F010040462846924F4704C4CEA46
:1023A400023223F0A00343EA01138261036210BCEA
:1023B4007047836823F070030B4343F00703836083
:1023C4007047000090F83D30DBB2012B2FD102237F
:1023D40080F83D300268D36843F00103D36003689A
:1023E400154A934218D002F50062934214D0B3F117
:1023F400804F11D0A2F5983293420DD002F580623D
:10240400934209D002F58062934205D01A6842F0E3
:1024140001021A60002070479A6802F00702062A37
:1024240007D01A6842F001021A60002070470120A8
:1024340070470020704700BF002C01407047704770
:1024440070477047704770B504460368DE681D69BD
:1024540015F0020F10D016F0020F0DD06FF002022B
:102464001A610123037703689B6913F0030F5ED09D
:10247400FFF7E6FF0023237715F0040F12D016F0C0
:10248400040F0FD023686FF004021A61022323772C
:1024940023689B6913F4407F4FD02046FFF7D0FF99
:1024A4000023237715F0080F12D016F0080F0FD071
:1024B40023686FF008021A61042323772368DB6919
:1024C40013F0030F40D02046FFF7BAFF0023237711
:1024D40015F0100F12D016F0100F0FD023686FF004
:1024E40010021A61082323772368DB6913F4407F01
:1024F40031D02046FFF7A4FF0023237715F0010F06
:1025040002D016F0010F2DD115F0800F02D016F075
:10251400800F2FD115F0400F02D016F0400F31D1AB
:1025240015F0200F02D016F0200F33D170BDFFF745
:1025340086FF2046FFF785FF9CE72046FFF77FFFD5
:102544002046FFF77EFFABE72046FFF778FF2046E3
:10255400FFF777FFBAE72046FFF771FF2046FFF742
:1025640070FFC9E723686FF001021A612046FFF784
:1025740065FFC9E723686FF080021A61204600F006
:10258400A1FBC7E723686FF040021A612046FFF7FA
:1025940059FFC5E723686FF020021A61204600F056
:1025A40090FBC3E70368284A904212D002F5006208
:1025B40090420ED0B0F1804F0BD0A2F598329042E9
:1025C40007D002F58062904203D002F58062904207
:1025D40003D123F070034A6813431B4A904212D07C
:1025E40002F5006290420ED0B0F1804F0BD0A2F5FC
:1025F4009832904207D002F58062904203D002F5EF
:102604008062904203D123F44073CA68134323F0D9
:1026140080034A69134303608B68C3620B68836257
:10262400094B984203D003F50063984201D10B692A
:10263400036301234361036913F0010F03D00369AA
:1026440023F0010303617047002C014040B310B52F
:10265400044690F83D30F3B1022384F83D3021461E
:1026640051F8040BFFF79EFF012384F8463084F8E9
:102674003E3084F83F3084F8403084F8413084F8A8
:10268400423084F8433084F8443084F8453084F888
:102694003D30002010BD80F83C30FEF7E3FBDBE763
:1026A4000120704740B310B5044690F83D30F3B1B3
:1026B400022384F83D30214651F8040BFFF772FFE2
:1026C400012384F8463084F83E3084F83F3084F89F
:1026D400403084F8413084F8423084F8433084F840
:1026E400443084F8453084F83D30002010BD80F833
:1026F4003C30FEF7F7FADBE701207047002857D09B
:1027040070B50D46044690F83D30002B4BD00223A3
:1027140084F83D302268936823F4804323F0070350
:102724009360214651F8040BFFF73CFF21688A6847
:102734008B690E6A2868104323F4407C2CF0030C48
:10274400AA68AB6942EA032343EA0C0323F47C43FB
:1027540023F0FC03EA69D5F80CC04CEA022C4CEADD
:10276400030C2A6A13032A6943EA021343EA0C039B
:1027740026F022066A686D6942EA051232438860CF
:1027840021688B6123681A62012384F8463084F837
:102794003E3084F83F3084F8423084F8433084F883
:1027A4003D30002070BD80F83C30FEF7B1FAAEE752
:1027B4000120704730B4036A026A22F010020262F8
:1027C4004468826922F4E6420D6842EA052223F055
:1027D40020038D6843EA0513114DA84203D005F583
:1027E4000065A84206D123F08003CD6843EA0513AF
:1027F40023F040030A4DA84203D005F50065A84222
:1028040007D124F440644D6944EA85048D6944EA9F
:102814008504446082614A688263036230BC704705
:10282400002C014038B590F83C30012B66D00446AA
:102834000D46012380F83C300C2A5AD8DFE802F018
:10284400075959591B595959305959594400006865
:10285400FFF7F6FC2268936943F00803936122684A
:10286400936923F0040393612268936929690B43F4
:10287400936100203EE00068FFF79CFF22689369A3
:1028840043F4006393612268936923F48063936142
:1028940022689369296943EA01239361002029E0AE
:1028A4000068FFF701FD2268D36943F00803D36190
:1028B4002268D36923F00403D3612268D3692969A8
:1028C4000B43D361002015E00068FFF725FD226863
:1028D400D36943F40063D3612268D36923F480632A
:1028E400D3612268D369296943EA0123D3610020B3
:1028F40000E00120002384F83C3038BD0220FCE7CE
:1029040010B4846824F47F4C42EA03220A4342EA66
:102914000C02826010BC704790F83C30012B78D0D8
:1029240010B50446012380F83C30022380F83D3082
:102934000268936823F47F4323F0770393600B6862
:10294400602B4CD029D8402B54D00CD9502B22D1F9
:10295400CA6849680068FFF707FD50212068FFF73F
:1029640028FD002005E0202B0DD009D9302B0AD0FA
:102974000120012384F83D30002384F83C3010BD4D
:102984000BB1102B05D119462068FFF712FD00206A
:10299400EFE70120EDE70120EBE7B3F5805F34D0EA
:1029A400B3F5005F0CD1CB684A6889680068FFF70B
:1029B400A7FF2268936843F4804393600020D8E71C
:1029C400702B24D1CB684A6889680068FFF798FFA8
:1029D4002268936843F0770393600020C9E7CA68CC
:1029E40049680068FFF7D2FC60212068FFF7E1FC2A
:1029F4000020BEE7CA6849680068FFF7B5FC4021BB
:102A04002068FFF7D6FC0020B3E70020B1E70120DF
:102A1400AFE70220704701F01F01012303FA01FC14
:102A2400036A23EA0C030362036A02FA01F10B430B
:102A34000362704710B50446084600293AD194F859
:102A44003E30DBB2013B18BF0123002B66D10028C6
:102A540049D1022384F83E30012201462068FFF761
:102A6400DAFF23682F4A934203D002F500629342AF
:102A740003D15A6C42F400425A642368294A9342AF
:102A840041D002F5006293423DD0B3F1804F3AD079
:102A9400A2F59832934236D002F58062934232D046
:102AA40002F5806293422ED01A6842F001021A6045
:102AB400002032E0042908D008290DD094F84130D0
:102AC400DBB2013B18BF0123BFE794F83F30DBB210
:102AD400013B18BF0123B8E794F84030DBB2013B57
:102AE40018BF0123B1E7042805D0082807D0022322
:102AF40084F84130B0E7022384F83F30ACE7022386
:102B040084F84030A8E79A6802F00702062A07D042
:102B14001A6842F001021A60002010BD0120FCE78F
:102B24000020FAE7002C014038B5044690F83E0036
:102B3400C0B294F83F3094F84220D2B294F843C023
:102B44000D46B1B9012849D1012A48D1022384F89C
:102B54003E3084F842307DB3042D39D00122002167
:102B64002068FFF758FF012204212068FFF753FF74
:102B740027E0DBB25FFA8CFC042912D0012833D1A0
:102B8400012B2CD1012A31D1BCF1010F30D1022308
:102B940084F83E3084F83F3084F8423084F843307F
:102BA400D9E7012B1CD1BCF1010F1BD1022384F8FE
:102BB4003F3084F84330CEE7012200212068FFF73C
:102BC4002AFF2268136843F001031360002006E023
:102BD400012204212068FFF71EFFF2E7012038BD1F
:102BE4000120FCE71846FAE70120F8E71846F6E763
:102BF4001046F4E790F83C30012B34D010B4012394
:102C040080F83C30022380F83D3003685A689C68A1
:102C140022F0700C0A6842EA0C025A600368134AF4
:102C2400934212D002F5006293420ED0B3F1804F6A
:102C34000BD0A2F59832934207D002F580629342FA
:102C440003D002F58062934204D124F080044A68E0
:102C540014439C60012380F83D30002380F83C300D
:102C6400184610BC70470220704700BF002C01407A
:102C740090F83C30012B22D0012380F83C30CB6803
:102C840023F440738A68134323F480634A6813432C
:102C940023F400630A68134323F480530A6913433B
:102CA40023F400534A69134323F48043CA6913434A
:102CB40002685364002380F83C30184670470220B1
:102CC400704770477047026802F10C0353E8003FF5
:102CD40023F0C0030C3242E800310029F3D1202351
:102CE40080F841307047026802F10C0353E8003F5A
:102CF40023F490730C3242E800310029F3D10268C6
:102D040002F1140353E8003F23F00103143242E8B4
:102D140000310029F3D1036B012B05D0202380F867
:102D24004230002303637047026802F10C0353E846
:102D3400003F23F010030C3242E800310029F3D1A4
:102D4400ECE790F84130DBB2212B01D00220704730
:102D54008368B3F5805F17D0036A5A1C02621A783D
:102D640003685A60C38C9BB2013B9BB2C3844BB9CA
:102D74000268D36823F08003D3600268D36843F009
:102D84004003D360002070470369002BE4D1036A39
:102D94001B880268C3F308035360036A02330362A7
:102DA400E0E7000010B504460268136923F44053B9
:102DB400C1680B43136183680269134342691A4370
:102DC4000168CB6823F4B05323F00C031343CB60A6
:102DD4000268536923F4407381690B4353610268A9
:102DE400134B9A4220D0FFF70BFA024602EB820201
:102DF40002EB820263689B00B2FBF3F20D48A0FB76
:102E040002314909642303FB11231B013233A0FB64
:102E140003235B0903F0F00202EB011203F00F033A
:102E2400216813448B6010BDFFF7FAF90246DDE711
:102E3400003801401F85EB5160B310B5044690F88B
:102E4400413013B3242384F841302268D36823F437
:102E54000053D3602046FFF7A5FF2268136923F4CB
:102E6400904313612268536923F02A035361226853
:102E7400D36843F40053D36000206064202384F8B3
:102E8400413084F84230606310BD80F84030FEF772
:102E940053F9D7E70120704738B590F84130DBB2D9
:102EA400202B30D1044600292FD00AB9012038BD87
:102EB40001628284C28400234364212084F8410097
:102EC400A06B134D8562A06B124DC562A06B124DB1
:102ED4000563A06B436320681346021DA06BFEF7D5
:102EE400DBFA23686FF040021A60226802F11403CF
:102EF40053E8003F43F08003143242E800310029D4
:102F0400F3D10020D3E70220D1E70120CFE700BFAF
:102F1400212F0008892F0008932F000808B50346C5
:102F2400406A1B681B6813F0200F1AD10023C38466
:102F3400026802F1140353E8003F23F080031432C3
:102F440042E800310029F3D1026802F10C0353E88E
:102F5400003F43F040030C3242E800310029F3D132
:102F640008BDFEF7B3F8FBE708B50168CA6822F0AC
:102F74004002CA60202280F84120FEF7A7F8002012
:102F840008BD704708B5406AFFF7FBFF08BD10B5E0
:102F9400446A23685A6994F84130DBB2212B10D07B
:102FA40023685A6902F0400294F84230DBB2222BC3
:102FB40011D0636C43F0100363642046FEF794F869
:102FC40010BD02F08002002AEAD00023E3842046E8
:102FD400FFF779FEE4E7002AEBD00023E3852046DF
:102FE400FFF781FEE5E708B5406A0023C385C38483
:102FF400FEF77AF808BD704790F84230DBB2222B16
:1030040069D18368B3F5805F4FD0826AB3F5805F7E
:1030140004D0002B56D10369002B53D103685B689D
:103024001370836A01338362C38D9BB2013B9BB2ED
:10303400C385002B51D100B583B00268D36823F057
:103044002003D3600268D36823F48073D3600268DA
:10305400536923F001035361202380F84230002395
:103064004363036B012B33D100230363026802F132
:103074000C0353E8003F23F010030C3242E8003104
:103084000029F3D103681A6812F0100F06D0002249
:1030940001921A6801925B680193019B818DFFF78D
:1030A400AAFF002003B05DF804FB0269002AACD13A
:1030B400826A03685B68C3F308031380836A02337C
:1030C4008362B1E703685B6803F07F031370A8E7CA
:1030D400FDF7A8FCE5E702207047002070470000D8
:1030E40030B583B0044602681368D068516913F0A0
:1030F4000F0505D113F0200F02D010F0200F19D1C5
:103104002DB111F0010119D110F4907F16D1216B6A
:1031140001297DD013F0800F03D010F0800F40F010
:10312400188113F0400F03D010F0400F40F01581C8
:1031340003B030BD2046FFF75FFFF9E713F0010F3E
:1031440006D010F4807F03D0626C42F00102626406
:1031540013F0040F04D019B1626C42F002026264ED
:1031640013F0020F04D019B1626C42F004026264DD
:1031740013F0080F07D010F0200F00D119B1626CC2
:1031840042F008026264626C002AD1D013F0200F6E
:1031940002D010F0200F29D123685B6903F04003AB
:1031A400626C12F0080F00D163B32046FFF79BFD59
:1031B40023685B6913F0400F20D0226802F11403E6
:1031C40053E8003F23F04003143242E80031002961
:1031D400F3D1E36B73B1634A5A63E06BFEF7BAF958
:1031E4000028A5D0E06B436B9847A1E72046FFF782
:1031F40003FFD1E72046FDF777FF99E72046FDF767
:1032040073FF95E72046FDF76FFF002363648FE7A4
:1032140013F0100F3FF47EAF10F0100F3FF47AAFAD
:10322400002301931368019353680193019B53692D
:1032340013F0400F51D0E26B13685B689BB2002B14
:103244003FF476AFA18D99427FF672AFE38593691F
:10325400202B37D0226802F10C0353E8003F23F4FB
:1032640080730C3242E800310029F3D1226802F164
:10327400140353E8003F23F00103143242E8003101
:103284000029F3D1226802F1140353E8003F23F02C
:103294004003143242E800310029F3D1202384F89A
:1032A400423000232363226802F10C0353E8003FF9
:1032B40023F010030C3242E800310029F3D1E06B13
:1032C400FEF725F902236363A18DE38D9BB2C91A2E
:1032D40089B22046FFF78FFE2AE7A18DE38D9BB2CA
:1032E400C91A89B2E38D9BB2002B3FF421AF0029A8
:1032F4003FF41EAF226802F10C0353E8003F23F4AD
:1033040090730C3242E800300028F3D1226802F1B5
:10331400140353E8003F23F00103143242E8003061
:103324000028F3D1202384F8423000232363226849
:1033340002F10C0353E8003F23F010030C3242E87F
:1033440000300028F3D1022363632046FFF753FEC5
:10335400EEE62046FFF7F5FCEAE62046FFF704FE1A
:10336400E6E600BFEB2F000881628285C285002358
:103374004364222380F84230036923B10268D3688E
:1033840043F48073D3600268536943F001035361CB
:103394000268D36843F02003D3600020704708B567
:1033A40090F84230DBB2202B08D149B10AB9012090
:1033B40008BD00230363FFF7D7FFF9E70220F7E70F
:1033C4000120F5E770B50D4E0D4D761BB61006D0F5
:1033D400002455F8043B01349847A642F9D1094E1C
:1033E400094D00F0D5F8761BB61006D0002455F828
:1033F400043B01349847A642F9D170BDDC3500087E
:10340400DC350008E4350008DC350008830730B5F6
:1034140048D0541E002A3FD00346CAB201E0013C02
:103424003AD303F8012B9D07F9D1032C2DD9CDB242
:1034340045EA05250F2C45EA054536D9A4F11002C5
:1034440022F00F0C03F1200EE6444FEA121C03F1A4
:10345400100242E9045542E9025510327245F8D18E
:103464000CF1010214F00C0F03EB021204F00F0C28
:1034740013D0ACF1040323F003030433134442F8E0
:10348400045B9342FBD10CF003042CB1CAB21C447C
:1034940003F8012B9C42FBD130BD64461346002C3B
:1034A400F4D1F9E703461446BFE71A46A446E0E719
:1034B400024B13B1024800F005B870470000000049
:1034C400D5340008002301461A46184600F01AB8FD
:1034D40038B5084B084D5B1B9C1007D0043B1D44BA
:1034E400013C55F804399847002CF9D1BDE838401F
:1034F40000F054B8E8350008E4350008704700BF10
:10350400704700BF2DE9F047DFF87CA00646DAF8E3
:10351400000098460F469146FFF7F0FF1B4B1B68CF
:10352400D3F8484124B365681F2D26DC5EB96B1CB3
:103534000235DAF80000636044F82570FFF7E0FF15
:103544000020BDE8F087012304EB8501C1F88890D1
:10355400D4F88821AB401A43022EC4F88821C1F85C
:103564000881E4D1D4F88C211343C4F88C31DEE70C
:1035740003F5A674C3F84841D5E7DAF80000FFF76D
:10358400BFFF4FF0FF30DCE748040020D8350008C7
:10359400F8B500BFF8BC08BC9E467047F8B500BF3C
:0835A400F8BC08BC9E4670470C
:1035AC0000000000000000000102030406070809E7
:1035BC0000000000010203040203040506070809C9
:1035CC000A0B0C0D0E0F1010010200002000002041
:0835DC00B534000809020008E3
:0435E400E5010008F5
:1035E8006400000064000000640000006400000043
:1035F80000127A0001000000100000000000000026
:10360800000000000C03002074030020DC030020ED
:1036180000000000000000000000000000000000A2
:103628000000000000000000000000000000000092
:103638000000000000000000000000000000000082
:103648000000000000000000000000000000000072
:103658000000000000000000000000000000000062
:103668000000000000000000000000000000000052
:103678000000000000000000000000000000000042
:103688000000000000000000000000000000000032
:103698000000000000000000000000000000000022
:1036A8000000000000000000010000000000000011
:1036B8000E33CDAB34126DE6ECDE05000B000000D6
:1036C80000000000000000000000000000000000F2
:1036D80000000000000000000000000000000000E2
:1036E80000000000000000000000000000000000D2
:1036F80000000000000000000000000000000000C2
:0C3A28000000000000000000E407002087
:04000005080011F9E5
:00000001FF
