:020000040800F2
:1000000000C00020F9110008A1090008A309000898
:10001000A5090008A7090008A909000800000000B8
:10002000000000000000000000000000AB09000814
:10003000AD09000800000000AF090008B109000880
:100040004112000841120008411200084112000844
:100050004112000841120008411200084112000834
:100060004112000841120008411200084112000824
:100070004112000841120008411200084112000814
:1000800041120008B9090008411200084112000895
:1000900041120008411200084112000841120008F4
:1000A00041120008411200084112000841120008E4
:1000B00041120008411200084112000841120008D4
:1000C00041120008411200084112000841120008C4
:1000D0004112000841120008C90900084112000835
:1000E00041120008411200084112000841120008A4
:1000F000D909000841120008411200084112000805
:100100004112000841120008411200084112000883
:100110004112000841120008ED090008150A000804
:100120004112000841120008411200084112000863
:1001300000000000000000000000000000000000BF
:1001400000000000000000000000000000000000AF
:10015000000000000000000000000000000000009F
:10016000000000000000000000000000000000008F
:10017000000000000000000000000000000000007F
:10018000000000000000000000000000000000006F
:10019000000000000000000000000000000000005F
:1001A000000000000000000000000000000000004F
:1001B000000000000000000000000000000000003F
:1001C000000000000000000000000000000000002F
:1001D000000000000000000000000000000000001F
:0401E0005FF8E0F1F3
:1001E40010B5054C237833B9044B13B10448AFF36D
:1001F40000800123237010BD2000002000000000B7
:10020400FC34000808B5034B1BB103490348AFF3A2
:10021400008008BD0000000024000020FC34000819
:1002240000B583B00A4B5A6942F001025A615B6916
:1002340003F001030193019B00221146112001F0F8
:10024400A3F8112001F0B0F803B05DF804FB00BF7F
:10025400001002402DE9F04188B000240494059474
:10026400069407942A4B9A6942F020029A619A698B
:1002740002F020020092009A9A6942F010029A61F8
:100284009A6902F010020192019A9A6942F00402FA
:100294009A619A6902F004020292029A9A6942F0FF
:1002A40008029A619B6903F008030393039B194DA9
:1002B40022468F21284601F09FFC174F22464FF417
:1002C4007041384601F098FC8F230493012605966B
:1002D40006944FF00208CDF81C8004A9284601F0CA
:1002E4006FFB4FF47043049305960694CDF81C807D
:1002F40004A9384601F064FB402304930594069650
:1003040004A9284601F05CFB08B0BDE8F08100BFF9
:100314000010024000100140000C014072B6FEE7DC
:1003240000B591B02822002106A803F053F8002359
:1003340001930293039304930593012206924FF4CD
:10034400803307930A9202220D920E934FF4E01326
:100354000F9306A801F06CFC80B90F2301930221CE
:100364000291002303934FF480620492059301A841
:1003740001F090FE20B911B05DF804FBFFF7CEFF49
:10038400FFF7CCFF08B500F081FFFFF7C9FFFFF7C7
:1003940061FFFFF745FF00F0DDFD00F051FB00F0C9
:1003A40081FB00F0B1FB00F0E1FB00F0ABFE00F0DC
:1003B4000FFC00F035FC00F05BFC00F02DF800F0C1
:1003C400F9F800F067F900F0F9F90D4802F004F8C3
:1003D4000C4802F001F80C4C01228021204601F067
:1003E4000BFC4FF4FA7000F075FF002280212046C8
:1003F40001F002FC4FF4FA7000F06CFFEBE700BF71
:1004040004010020BC000020001001400368586A69
:1004140000225A6200B2704708B53C21074802F036
:100424008DFB3C21064802F089FB3C21054802F083
:1004340085FB3C21044802F081FB08BD6C020020CE
:1004440024020020DC0100209401002008B50448A7
:10045400FFF7DCFF034A13680344136008BD00BFC1
:100464006C0200200000002008B50448FFF7CEFF0E
:10047400034A53680344536008BD00BF24020020AC
:100484000000002008B50448FFF7C0FF034A936842
:100494000344936008BD00BFDC010020000000207D
:1004A40008B50448FFF7B2FF034AD3680344D36096
:1004B40008BD00BF9401002000000020032809D8D3
:1004C400054B53F82000054B83FB0023C017C0EBFA
:1004D4006310704700207047000000201F85EB5117
:1004E400002304E0034A002142F823100133032BC4
:1004F400F8DD7047000000202DE9F0410C46032888
:100504003DD8DFE800F00221131A01270221254D0E
:100514000026B4F57A7F21DC234B9C42B8BF1C46ED
:10052400002C16DB4FF0000801221CE04FF480572A
:100534004FF400511D4D0826EBE74FF480474FF46C
:1005440000411A4D0C26E4E704270821154D3E46C8
:10055400DFE764424FF00108002204E04FF0000896
:1005640001224FF47A74284601F046FB424639468C
:10057400284601F041FB26B90D4B1B685C63BDE8BE
:10058400F081042E05D0082E07D0094B1B681C648B
:10059400F5E7074B1B689C63F1E7054B1B68DC63BD
:1005A400EDE700BF0010014018FCFFFF000C014004
:1005B400B402002010B5094C0021204602F044FA90
:1005C4000421204602F040FA0821204602F03CFAB9
:1005D4000C21204602F038FA10BD00BFB4020020FE
:1005E40070B50E4615461C4601460020FFF784FFF1
:1005F40031460120FFF780FF29460220FFF77CFFE8
:1006040021460320FFF778FF70BD000084468A1A54
:10061400194951F83030134441F8303017498B42AE
:100624001EDD154B43F83010134B53F83C304FF498
:10063400487101FB03F341F27C5101FB0233104981
:1006440081FB0301D817C0EB61100E498B420EDC0D
:100654000D498B420EDB084B03EBCC035A60704709
:100664000A498B42E0DA044B43F83010DCE74FF4DC
:100674007A70F0E70648EEE76C000020A0860100DF
:100684001F85EB5103870100FD78FEFF6079FEFFB3
:1006940018FCFFFF08B50C4801F09EFE002310E093
:1006A4000A49002241F8332001EBC3014A6008499A
:1006B40041F82320074941F82320074941F8232022
:1006C4000133032BECDD08BD4C0100206C0000203D
:1006D4005C0000204C0000203C000020F8B50646D9
:1006E4000D4614460168124F3B785BB22A681944E0
:1006F4000020FFF78BFF206071687B785BB26A682B
:1007040019440120FFF782FF6060B168BB785BB2D7
:10071400AA6819440220FFF779FFA060F168FB780A
:100724005BB2EA6819440320FFF770FFE060F8BD8C
:100734009400002038B5FFF789FE0C4D2860FFF7C0
:1007440093FE6860FFF79EFEA860FFF7A9FEE860CD
:10075400074C224629460748FFF7C0FFE368A26812
:1007640061682068FFF73CFF38BD00BF4C000020E3
:100774003C0000205C000020002306E05A1C10F915
:1007840002C00B4901F803C0D3B2032BF6D9437955
:1007940003F00103074A1370002305E09A1D8156F4
:1007A400054AD1540133DBB2032BF7D9704700BF9C
:1007B40098000020930000209400002008B5012236
:1007C4000249034802F0F3FD08BD00BFAB0000205E
:1007D4007003002038B5394B1C78E4B2384D2B78BF
:1007E4003848C45401333849A1FB032C0CF4FF727C
:1007F40002EB5C029B1A2B70DBB2A1FB032101F01C
:10080400FE0202EB51029A1A825C212A11D02F4B6C
:100814001B78012B30D0022B3BD0002B49D1232C49
:100824003CD12B4B1C7001232A4A1370274A1370A6
:1008340034E05A1C2449A1FB020101F4FF7000EBCF
:100844005101521A1F498A5C402AE0D102331E4AE0
:10085400A2FB031202F4FF7101EB52029B1A194A24
:10086400D35C212BD3D1FFF73BFE164A00239370B0
:10087400537013702B70CAE7164A13781449CC547A
:100884000133DBB21370092B08D9104B02221A7002
:1008940004E0212C08D00D4B00221A7001220749D4
:1008A4000D4802F084FD38BD09488472FFF764FFE7
:1008B400F1E7064B00221A70F0E700BFAB000020FE
:1008C4008C00002090000020ABAAAAAA9C00002063
:1008D400A00000209D000020700300200022032AB5
:1008E4002ED810B415E011F1640F01DAA4F16403F9
:1008F400144941F82030144981FB0341DB17C3EB51
:10090400A1131BB2114941F820300132D2B2032A9B
:1009140014D810460E4B9B5C5BB24FF47A7101FB0A
:1009240003F3084951F822400A4909780029DFD025
:10093400191B6429D7DD04F16403D9E710BC70479F
:10094400704700BFAC000020D34D62105C00002053
:10095400980000209300002082B00E4B9A6942F068
:1009640001029A619A6902F001020092009ADA691E
:1009740042F08052DA61DB6903F080530193019BFA
:10098400054A536823F0E06343F00073536002B0F8
:10099400704700BF0010024000000140FEE7FEE780
:1009A400FEE7FEE7FEE770477047704708B500F0C2
:1009B4007FFC08BD08B5024800F08CFE08BD00BFEE
:1009C4002C03002008B5024802F094FB08BD00BFC8
:1009D4007003002008B500F061FB024801F03DFD02
:1009E40008BD00BFBC00002008B5084B1B681A698D
:1009F40012F0010F03D1054801F02FFD08BD6FF07F
:100A040001021A61FFF796FEF5E700BF4C010020D2
:100A140008B5FFF763FF024801F01FFD08BD00BFE2
:100A24000401002008B50268034B9A4200D008BDB7
:100A3400FFF7D0FEFBE700BF004400407047000012
:100A440000B58DB02422002103A802F0C3FC0023CA
:100A54000193029312484FF0804202604360836026
:100A64004FF6FF72C2600361836103230393012382
:100A74000593099303A901F04BFE50B90023019398
:100A8400029301A9064802F0BFF828B90DB05DF839
:100A940004FBFFF743FCF1E7FFF740FCF6E700BF78
:100AA4006C02002000B58DB02422002103A802F0BE
:100AB40091FC0023019302931148124A026043609F
:100AC40083604FF6FF72C260036183610323039363
:100AD40001230593099303A901F01AFE50B90023D9
:100AE4000193029301A9064802F08EF828B90DB0CB
:100AF4005DF804FBFFF712FCF1E7FFF70FFCF6E7E4
:100B0400240200200004004000B58DB024220021FE
:100B140003A802F05FFC0023019302931148124AD8
:100B24000260436083604FF6FF72C26003618361B9
:100B34000323039301230593099303A901F0E8FD1B
:100B440050B900230193029301A9064802F05CF80E
:100B540028B90DB05DF804FBFFF7E0FBF1E7FFF700
:100B6400DDFBF6E7DC0100200008004000B58DB095
:100B74002422002103A802F02DFC002301930293F8
:100B84001148124A0260436083604FF6FF72C260EC
:100B9400036183610323039301230593099303A949
:100BA40001F0B6FD50B900230193029301A9064850
:100BB40002F02AF828B90DB05DF804FBFFF7AEFB8C
:100BC400F1E7FFF7ABFBF6E794010020000C0040CF
:100BD40000B583B00023009301930F480F4A0260CD
:100BE40047224260836040F2E733C360802383611D
:100BF40001F036FD50B9002300930193694606487D
:100C040002F002F828B903B05DF804FBFFF786FB95
:100C1400F1E7FFF783FBF6E74C01002000100040EA
:100C240000B583B00023009301930F480F4A02607C
:100C340041F61F42426083600922C260836101F071
:100C44000FFD50B90023009301936946064801F053
:100C5400DBFF28B903B05DF804FBFFF75FFBF1E7A6
:100C6400FFF75CFBF6E700BF04010020001400401E
:100C740000B587B000230293039304930593009374
:100C840001931648164A026041F61F42426083608F
:100C940040F2F312C260036143618023836101F077
:100CA400DFFC90B94FF48053029302A90B4801F082
:100CB4003DFE68B90023009301936946074801F09B
:100CC400A3FF40B907B05DF804FBFFF727FBE9E792
:100CD400FFF724FBEEE7FFF721FBF3E7BC0000205E
:100CE400003401400268094B9A4200D0704782B038
:100CF40003F564439A6942F400629A619B6903F4C0
:100D040000630193019B02B0704700BF002C0140B7
:100D140000B58FB000230A930B930C930D930368D3
:100D2400B3F1804F0BD0484A93423FD0474A934295
:100D340056D0474A93426DD00FB05DF804FB03F5DB
:100D44000433DA6942F00102DA61DA6902F001027D
:100D54000192019A9A6942F004029A619A6902F036
:100D640004020292029A9A6942F008029A619B690B
:100D740003F008030393039B4FF400430A930AA967
:100D8400344800F01DFE08230A9300230B930C93B0
:100D94000AA9314800F014FE304A536823F4407322
:100DA40043F0E06343F480735360C5E72C4BDA6986
:100DB40042F00202DA61DA6902F002020492049A51
:100DC4009A6942F004029A619B6903F00403059353
:100DD400059BC0230A930AA91E4800F0F1FDABE766
:100DE4001F4BDA6942F00402DA61DA6902F00402A4
:100DF4000692069A9A6942F008029A619B6903F086
:100E040008030793079BC0230A930AA9124800F01A
:100E1400D7FD91E7124BDA6942F00802DA61DA6928
:100E240002F008020892089A9A6942F004029A6150
:100E34009B6903F004030993099B03230A930AA9FA
:100E4400044800F0BDFD77E70004004000080040BE
:100E5400000C004000080140000C0140000001406B
:100E64000010024000B585B00368224A934208D0BE
:100E7400214A934218D0214A934228D005B05DF804
:100E840004FB1F4BDA6942F01002DA61DB6903F0FC
:100E940010030193019B00221146362000F074FADE
:100EA400362000F081FAE9E7154BDA6942F02002B6
:100EB400DA61DB6903F020030293029B00221146EE
:100EC400372000F061FA372000F06EFAD6E70C4BB9
:100ED4009A6942F400529A619B6903F400530393A4
:100EE400039B002211462C2000F04EFA2C2000F027
:100EF4005BFAC3E7001000400014004000340140D6
:100F04000010024000B587B00023029303930493BA
:100F1400059302680D4B9A4202D007B05DF804FBBA
:100F240003F564439A6942F004029A619B6903F0F1
:100F340004030193019B4FF4706302930223039310
:100F4400059302A9024800F03BFDE6E7002C0140AE
:100F54000008014010B592B0002410941194099433
:100F64000A940B940C940D940E940F942022214611
:100F740001A802F02FFA3148314B03600223436089
:100F8400846040F2E733C36004614461846101F02A
:100F940093FB00283CD100231093119310A92748F8
:100FA40001F032FE002836D16023099300220A9210
:100FB4000B920C920D920E920F9209A91F4801F008
:100FC4003BFC58BB042209A91C4801F035FC40BB7A
:100FD400082209A9194801F02FFC28BB0C2209A9F1
:100FE400164801F029FC10BB0023019302930393DC
:100FF400049305934FF400520692089301A90F48F5
:1010040001F040FEB0B90D48FFF77CFF12B010BDEF
:10101400FFF784F9BFE7FFF781F9C5E7FFF77EF92A
:10102400D0E7FFF77BF9D3E7FFF778F9D6E7FFF7C7
:1010340075F9D9E7FFF772F9E5E700BFB4020020BC
:10104400002C014038B5124C232304F8013B002343
:1010540005E0104AD25C52B224F8022B0133032B70
:10106400F7DD002505E0E8B2FFF728FA44F8040BA1
:101074000135032DF7DD002305E0074A52F823204C
:1010840044F8042B0133032BF7DD2123237038BDEF
:1010940000030020980000204C00002008B5084BF5
:1010A4001B7803B108BDFFF7CDFF2A220549064886
:1010B40001F0FCFE0028F5D1014B01221A70F1E782
:1010C400FC02002000030020700300200268044B8F
:1010D4009A4200D07047034B00221A70FAE700BF0F
:1010E40000440040FC0200200268044B9A4200D0F5
:1010F4007047034B00221A70FAE700BF0044004017
:10110400FC02002008B50A480A4B03604FF4E1339F
:10111400436000238360C36003610C2242618361E6
:10112400C36101F093FE00B908BDFFF7F7F8FBE7D0
:10113400700300200044004070B586B00023029381
:101144000393049305930268264B9A4201D006B098
:1011540070BD044603F5E633DA6942F40032DA611D
:10116400DA6902F400320092009A9A6942F00402A9
:101174009A619B6903F004030193019B0423029386
:101184000223039303230593174E02A9304600F06C
:1011940017FC082302930025039504950DEB030126
:1011A400304600F00DFC1148114B036010234360DE
:1011B40085608023C360056145618561C56100F078
:1011C4002BF958B9094BA3635C620022114626200F
:1011D40000F0DAF8262000F0E7F8B8E7FFF79EF809
:1011E400F0E700BF00440040000801402C03002049
:1011F40080000240FFF722FC0B480C490C4A0023F4
:1012040002E0D458C4500433C4188C42F9D3094AB8
:10121400094C002301E013600432A242FBD302F024
:10122400E1F8FFF7AFF8704700000020200000202D
:101234004C3500082000002054050020FEE7000083
:1012440010B504460E4B1A784FF47A73B3FBF2F3DD
:101254000C4A1068B0FBF3F000F0B4F868B90F2C36
:1012640001D901200AE0002221464FF0FF3000F0AE
:101274008BF8054B1C60002000E0012010BD00BF6E
:1012840014000020100000201800002008B5074AB0
:10129400136843F010031360032000F063F80F2079
:1012A400FFF7CEFFFFF758FB002008BD00200240E7
:1012B400034A1168034B1B780B441360704700BF4B
:1012C400B803002014000020014B1868704700BFC9
:1012D400B803002038B50446FFF7F6FF0546B4F11D
:1012E400FF3F02D0044B1B781C44FFF7EDFF401B6B
:1012F400A042FAD338BD00BF14000020002808DB48
:101304000901C9B200F1604000F5614080F80013A2
:10131400704700F00F000901C9B2014B195470471E
:1013240014ED00E000B500F00700C0F1070CBCF1BB
:10133400040F28BF4FF0040C031D062B0FD9C31E46
:101344004FF0FF3E0EFA0CF021EA000199400EFA2C
:1013540003FE22EA0E0241EA02005DF804FB0023C8
:10136400EEE70000074AD36823F4E0631B041B0C78
:10137400000200F4E060034343F0BF6343F400332E
:10138400D360704700ED00E010B50446054BD86803
:10139400C0F30220FFF7C6FF01462046FFF7AEFF69
:1013A40010BD00BF00ED00E0002807DB00F01F02C5
:1013B400400901239340024A42F82030704700BF9D
:1013C40000E100E00138B0F1807F0BD24FF0E02360
:1013D4005861054AF02182F8231000209861072201
:1013E4001A6170470120704700ED00E030B4012419
:1013F400056CAC40C56B6C60046863604368102B7B
:1014040005D0036899600368DA6030BC70470368EC
:101414009A600368D960F8E7002838D010B402460F
:1014240001681C4B994227D81B4B0B441B48A0FB5B
:1014340003031B099B001364194BD363022382F833
:10144400213008686FF30D10536894682343D468FF
:101454002343146923435469234394692343D4697C
:10146400234303430B6000209063012382F821305F
:1014740082F8200010BC70470A4B0B440748A0FBBD
:1014840003031B099B001364074BD363D6E70120B6
:10149400704700BF07040240F8FFFDBFCDCCCCCCA1
:1014A40000000240F8FBFDBF0004024038B50446CA
:1014B40090F82000012832D0012084F8200094F80C
:1014C4002100C0B2012804D0002384F82030022077
:1014D40038BD022084F821000020A0632568286814
:1014E40020F0010028602046FFF780FFE36A5BB12B
:1014F4002268136843F00E0313602268136843F0F4
:10150400010313600020E3E72268136823F0040357
:1015140013602268136843F00A031360EDE70220A6
:10152400D6E7034690F82120D2B2022A06D004223C
:101534008263002280F820200120704701680A6835
:1015440022F00E020A6001680A6822F001020A60B1
:10155400026CC06B012101FA02F2426083F821108F
:10156400002083F82000704708B590F82130DBB2E2
:10157400022B03D004238363012008BD026813688F
:1015840023F00E0313600268136823F00103136051
:1015940003684C4A93424ED9783A934224D0143289
:1015A400934230D0143293422FD0143293422FD02E
:1015B400143293422FD0143293422FD014329342D8
:1015C4002FD002F5627293422ED0143293422DD062
:1015D400143293422CD01432934202D04FF480320E
:1015E40003E04FF4805200E00122374B5A6001239C
:1015F40080F82130002380F82030436B002B5ED02C
:1016040098470020B9E71022EFE74FF48072ECE727
:101614004FF48052E9E74FF48032E6E74FF480124A
:10162400E3E74FF08072E0E70122DEE71022DCE717
:101634004FF48072D9E7254A934224D0143293425E
:1016440025D01432934224D01432934224D014323D
:10165400934224D01432934224D01432934224D09F
:1016640002F56272934223D01432934222D0143290
:10167400934221D01432934202D04FF4803203E0DB
:101684004FF4805200E00122114B5A60AFE7102260
:10169400FAE74FF48072F7E74FF48052F4E74FF41F
:1016A4008032F1E74FF48012EEE74FF08072EBE7FF
:1016B4000122E9E71022E7E74FF48072E4E7002013
:1016C4005BE700BF800002400004024008000240C3
:1016D4000000024038B5C36B1A6804682568016CC1
:1016E40004238B40134200F09B8015F0040F00F09C
:1016F4009780236813F0200F03D1236823F0040399
:10170400236003689A4A934246D9783A934224D094
:101714001432934228D01432934227D01432934285
:1017240027D01432934227D01432934227D0143254
:10173400934227D002F56272934226D01432934228
:1017440025D01432934224D01432934202D04FF461
:10175400802203E04FF4804200E00422854B5A606B
:10176400C36A03B1984738BD4022F7E74FF480625B
:10177400F4E74FF48042F1E74FF48022EEE74FF4B0
:101784008002EBE74FF08062E8E70422E6E74022BC
:10179400E4E74FF48062E1E7774A934224D01432BD
:1017A400934225D01432934224D01432934224D04D
:1017B4001432934224D01432934224D014329342EC
:1017C40024D002F56272934223D01432934222D081
:1017D4001432934221D01432934202D04FF4802227
:1017E40003E04FF4804200E00422644B5A60B7E700
:1017F4004022FAE74FF48062F7E74FF48042F4E7BF
:101804004FF48022F1E74FF48002EEE74FF080625C
:10181400EBE70422E9E74022E7E74FF48062E4E7DC
:1018240002238B40134200F0AB8015F0020F00F04E
:10183400A780236813F0200F06D1236823F00A033E
:101844002360012380F821300368494A93424BD92D
:10185400783A934224D0143293422DD014329342D6
:101864002CD0143293422CD0143293422CD0143204
:1018740093422CD0143293422CD002F562729342DC
:101884002BD0143293422AD01432934229D01432EA
:10189400934202D04FF4003203E04FF4005200E0D0
:1018A4000222344B5A60002380F82030836A002BD4
:1018B4003FF459AF984756E72022F2E74FF40072FD
:1018C400EFE74FF40052ECE74FF40032E9E74FF44E
:1018D4000012E6E74FF00072E3E70222E1E720227C
:1018E400DFE74FF40072DCE7234A934224D014323A
:1018F400934225D01432934224D01432934224D0FC
:101904001432934224D01432934224D0143293429A
:1019140024D002F56272934223D01432934222D02F
:101924001432934221D01432934202D04FF4003245
:1019340003E04FF4005200E00222104B5A60B2E779
:101944002022FAE74FF40072F7E74FF40052F4E76D
:101954004FF40032F1E74FF40012EEE74FF000725B
:10196400EBE70222E9E72022E7E74FF40072E4E71D
:1019740080000240000402400800024000000240CF
:1019840008238B4013423FF4EEAE15F0080F3FF4EA
:10199400EAAE236823F00E032360026CC16B0123BB
:1019A40003FA02F24A60836380F82130002380F84E
:1019B4002030036B002B3FF4D6AE9847D3E600BF2C
:1019C40070B582B00024A446ABE0854DAB4214D080
:1019D4000CD8A5F58015AB420FD005F57025AB42A8
:1019E4000BD0A5F58015AB4210D106E07D4DAB427E
:1019F40003D005F58035AB4208D18B68002B5AD053
:101A0400012B53D04261082400E0CC68BEF1FF0FE3
:101A140053D806464FEA8C0233680F25954023EAD3
:101A2400050304FA02F2134333604B6813F0805F3A
:101A340075D06D4B9A6942F001029A619B6903F07B
:101A440001030193019B4FEA9C02951C674B53F8D9
:101A540025600CF00305AD000F23AB4026EA030616
:101A6400634B984230D003F58063984200F096802F
:101A740003F58063984200F0938003F580639842F5
:101A840000F0908003F58063984200F08D8003F5A8
:101A94008063984216D0062317E0CC680434B5E777
:101AA400CC680834B2E7CC680C34AFE70261082490
:101AB400ACE70024AAE70424A8E7061DACF1080259
:101AC4009200A9E7052300E00023AB403343023230
:101AD400464D45F822304B6813F4801F66D0454AC2
:101AE400936843EA0E0393604B6813F4001F63D0BA
:101AF400404AD36843EA0E03D3604B6813F4003FB3
:101B040060D03C4A536843EA0E0353604B6813F4B5
:101B1400803F5DD0374A136843EA0E0313600CF12B
:101B2400010C0B6833FA0CF258D0012202FA0CF2C1
:101B340003EA020E32EA0303F1D14B68122B3FF69B
:101B440044AF122B3FF662AF01A555F823F000BF56
:101B5400FF1900080F1A0008A51A0008B71A000890
:101B6400111A0008111A0008111A0008111A0008A5
:101B7400111A0008111A0008111A0008111A000895
:101B8400111A0008111A0008111A0008111A000885
:101B9400111A00089F1A0008AB1A0008012394E7E1
:101BA400022392E7032390E704238EE7114A936804
:101BB40023EA0E03936097E70E4AD36823EA0E03E1
:101BC400D3609AE70B4A536823EA0E0353609DE7F8
:101BD400084A136823EA0E031360A0E702B070BD3D
:101BE40000002210000031100010024000000140EB
:101BF40000080140000401400AB101617047090472
:101C04000161704782B0084B1B68084AA2FB03239A
:101C14005B0A00FB03F3019300BF019B5A1E019270
:101C2400002BF9D102B0704710000020D34D621090
:101C3400002800F0F18170B582B00446036813F007
:101C4400010F2CD0994B5B6803F00C03042B1DD0BF
:101C5400964B5B6803F00C03082B12D06368B3F552
:101C6400803F41D0002B55D103F1804303F5043369
:101C74001A6822F480321A601A6822F480221A60E8
:101C840037E08A4B5B6813F4803FE7D0874B1B68CF
:101C940013F4003F03D06368002B00F0BF81236876
:101CA40013F0020F75D0814B5B6813F00C0F5FD0FB
:101CB4007E4B5B6803F00C03082B54D02369002B84
:101CC40000F08A807A4B01221A60FFF7FDFA05467C
:101CD400764B1B6813F0020F75D1FFF7F5FA401B22
:101CE4000228F5D903209EE1704A136843F4803337
:101CF4001360636843B3FFF7E7FA05466B4B1B6851
:101D040013F4003FCBD1FFF7DFFA401B6428F5D969
:101D1400032088E1B3F5A02F09D0644B1A6822F49C
:101D240080321A601A6822F480221A60E1E703F113
:101D34008043A3F53C331A6842F480221A601A687F
:101D440042F480321A60D4E7FFF7BEFA0546574BD7
:101D54001B6813F4003FA2D0FFF7B6FA401B6428B7
:101D6400F5D903205FE1514B5B6813F4803FA5D1A3
:101D74004E4B1B6813F0020F03D02369012B40F074
:101D84004F814A4A136823F0F803616943EAC103A7
:101D94001360236813F0080F33D0A369002B5CD0C1
:101DA400434B0122C3F88024FFF78EFA05463F4BCC
:101DB4005B6A13F0020F21D1FFF786FA401B022859
:101DC400F5D903202FE1394A136823F0F803616938
:101DD40043EAC1031360DCE7354B00221A60FFF7C6
:101DE40073FA0546314B1B6813F0020FD1D0FFF78D
:101DF4006BFA401B0228F5D9032014E10120FFF7F8
:101E040001FF236813F0040F00F09680274BDB6971
:101E140013F0805F34D1254BDA6942F08052DA61E5
:101E2400DB6903F080530193019B0125214B1B685F
:101E340013F4807F26D0E368012B3DD0002B53D1CF
:101E440003F1804303F504331A6A22F001021A6293
:101E54001A6A22F004021A6233E0154B0022C3F816
:101E64008024FFF731FA0546104B5B6A13F0020F2A
:101E7400C7D0FFF729FA401B0228F5D90320D2E086
:101E84000025D3E70B4A136843F480731360FFF70C
:101E94001BFA0646074B1B6813F4807FCBD1FFF770
:101EA40013FA801B6428F5D90320BCE0001002401B
:101EB40000004242007000405F4A136A43F001038D
:101EC4001362E36833B3FFF7FFF906465A4B1B6A04
:101ED40013F0020F2FD1FFF7F7F9801B41F288337B
:101EE4009842F3D903209EE0052B09D0524B1A6A7D
:101EF40022F001021A621A6A22F004021A62E0E76E
:101F04004D4B1A6A42F004021A621A6A42F0010244
:101F14001A62D6E7FFF7D8F90646474B1B6A13F057
:101F2400020F08D0FFF7D0F9801B41F288339842A2
:101F3400F3D9032077E0E5B9E369002B72D03E4A78
:101F4400526802F00C02082A56D0022B17D03B4BE1
:101F540000221A66FFF7B8F90446374B1B6813F0E2
:101F6400007F47D0FFF7B0F9001B0228F5D9032002
:101F740059E0314AD36923F08053D361DCE72F4B16
:101F840000221A66FFF7A0F905462B4B1B6813F0D5
:101F9400007F06D0FFF798F9401B0228F5D90320EB
:101FA40041E0236AB3F5803F1AD023494B6823F4F8
:101FB4007413226A606A024313434B601F4B01226D
:101FC4001A66FFF781F904461B4B1B6813F0007F68
:101FD4000ED1FFF779F9001B0228F5D9032022E07E
:101FE400154A536823F40033A1680B435360DCE7BC
:101FF400002018E0002016E0012B16D00E4B5B6881
:1020040003F48031226A914211D103F47013626A9D
:1020140093420ED1002006E001207047012002E027
:10202400012000E0002002B070BD0120FBE7012088
:10203400F9E70120F7E700BF001002400000424228
:102044000F4B5B6803F00C02082A01D00D4870475F
:10205400C3F383420C49885C13F4803F0BD0084BD4
:102064005B68C3F34043094AD35C064A02FB00F0B1
:10207400B0FBF3F07047064B03FB00F0704700BF62
:102084000010024000127A00303500082C35000898
:1020940000093D00002800F0A08070B50D460446FC
:1020A400524B1B6803F007038B420BD24F4A136851
:1020B40023F007030B431360136803F007038B42F9
:1020C40040F08D80236813F0020F17D013F0040F33
:1020D40004D0474A536843F4E0635360236813F021
:1020E400080F04D0424A536843F460535360404A93
:1020F400536823F0F003A1680B435360236813F083
:10210400010F31D06368012B20D0022B25D0384A2F
:10211400126812F0020F64D035494A6822F00302B3
:1021240013434B60FFF7D0F80646314B5B6803F06E
:102134000C036268B3EB820F16D0FFF7C5F8801B5F
:1021440041F288339842F0D9032045E0284A1268C6
:1021540012F4003FE0D101203EE0254A126812F05B
:10216400007FD9D1012037E0204B1B6803F007031F
:10217400AB420AD91D4A136823F007032B431360AB
:10218400136803F00703AB422DD1236813F0040F47
:1021940006D0174A536823F4E063E1680B435360A5
:1021A400236813F0080F07D0114A536823F46053CF
:1021B400216943EAC1035360FFF742FF0C4B5B689C
:1021C400C3F303130B4AD35CD8400B4B18600B4B7F
:1021D4001868FFF735F8002070BD01207047012012
:1021E400FAE70120F8E70120F6E700BF00200240EB
:1021F400001002401C3500081000002018000020C8
:10220400014B1868704700BF1000002008B5FFF7A5
:10221400F7FF044B5B68C3F30223034AD35CD84043
:1022240008BD00BF001002401435000808B5FFF7D0
:10223400E7FF044B5B68C3F3C223034AD35CD84073
:1022440008BD00BF001002401435000830B4036A12
:10225400026A22F0010202624268846924F0730C6B
:102264000C6844EA0C0423F0020C8B6843EA0C0368
:10227400114DA84203D005F50065A84205D123F00D
:102284000803CD682B4323F004030B4DA84203D06D
:1022940005F50065A84207D122F440724D6945EA6C
:1022A400020C8A6942EA0C02426084614A68426311
:1022B400036230BC704700BF002C014030B4036A95
:1022C400026A22F4807202624268C46924F0730CC8
:1022D4000C6844EA0C0523F400738C6843EA042375
:1022E400114CA04203D004F50064A04206D123F4AB
:1022F4000063CC6843EA042323F480630A4CA042BD
:1023040003D004F50064A04207D122F440524C6982
:1023140042EA04128C6942EA04124260C5614A68C6
:10232400C263036230BC7047002C014030B4036ABE
:10233400026A22F4805202624468C26922F4E642CC
:102344000D6842EA052223F400538D6843EA0533FD
:10235400094DA84203D005F50065A84204D124F430
:1023640080444D6944EA85144460C2614A68026449
:10237400036230BC704700BF002C014010B4036AF4
:10238400046A24F001040462846924F0F00C4CEA29
:10239400021223F00A030B438261036210BC7047EC
:1023A40010B4036A046A24F010040462846924F4F7
:1023B400704C4CEA023223F0A00343EA0113826119
:1023C400036210BC7047836823F070030B4343F02F
:1023D400070383607047000090F83D30DBB2012BA7
:1023E4002FD1022380F83D300268D36843F0010303
:1023F400D3600368154A934218D002F500629342F1
:1024040014D0B3F1804F11D0A2F5983293420DD07D
:1024140002F58062934209D002F58062934205D0AE
:102424001A6842F001021A60002070479A6802F0AC
:102434000702062A07D01A6842F001021A60002037
:102444007047012070470020704700BF002C0140F6
:102454007047704770477047704770B5044603680B
:10246400DE681D6915F0020F10D016F0020F0DD0B2
:102474006FF002021A610123037703689B6913F06A
:10248400030F5ED0FFF7E6FF0023237715F0040F58
:1024940012D016F0040F0FD023686FF004021A61F3
:1024A4000223237723689B6913F4407F4FD020468F
:1024B400FFF7D0FF0023237715F0080F12D016F092
:1024C400080F0FD023686FF008021A6104232377E2
:1024D4002368DB6913F0030F40D02046FFF7BAFFEF
:1024E4000023237715F0100F12D016F0100F0FD021
:1024F40023686FF010021A61082323772368DB69CD
:1025040013F4407F31D02046FFF7A4FF0023237744
:1025140015F0010F02D016F0010F2DD115F0800F28
:1025240002D016F0800F2FD115F0400F02D016F014
:10253400400F31D115F0200F02D016F0200F33D107
:1025440070BDFFF786FF2046FFF785FF9CE7204616
:10255400FFF77FFF2046FFF77EFFABE72046FFF73C
:1025640078FF2046FFF777FFBAE72046FFF771FFB1
:102574002046FFF770FFC9E723686FF001021A6174
:102584002046FFF765FFC9E723686FF080021A61F0
:10259400204600F0A1FBC7E723686FF040021A61F0
:1025A4002046FFF759FFC5E723686FF020021A6140
:1025B400204600F090FBC3E70368284A904212D0FB
:1025C40002F5006290420ED0B0F1804F0BD0A2F51C
:1025D4009832904207D002F58062904203D002F50F
:1025E4008062904203D123F070034A6813431B4A6C
:1025F400904212D002F5006290420ED0B0F1804FAA
:102604000BD0A2F59832904207D002F58062904236
:1026140003D002F58062904203D123F44073CA6868
:10262400134323F080034A69134303608B68C36236
:102634000B688362094B984203D003F50063984208
:1026440001D10B69036301234361036913F0010F93
:1026540003D0036923F0010303617047002C014098
:1026640040B310B5044690F83D30F3B1022384F82A
:102674003D30214651F8040BFFF79EFF012384F8F7
:10268400463084F83E3084F83F3084F8403084F893
:10269400413084F8423084F8433084F8443084F87C
:1026A400453084F83D30002010BD80F83C30FEF702
:1026B400D9FBDBE70120704740B310B5044690F81E
:1026C4003D30F3B1022384F83D30214651F8040B28
:1026D400FFF772FF012384F8463084F83E3084F813
:1026E4003F3084F8403084F8413084F8423084F834
:1026F400433084F8443084F8453084F83D30002079
:1027040010BD80F83C30FEF7EDFADBE7012070479E
:10271400002856D070B50D46044690F83D30002B85
:102724004AD0022384F83D302268936823F480431E
:1027340023F007039360214651F8040BFFF73CFF95
:1027440021688B688A690E6A2868184322F44072EB
:1027540022F00302AB68D5F818C043EA0C231343F4
:1027640023F47C4323F0FC03EA68D5F81CC042EA56
:102774000C221A432B6A1B03D5F810C043EA0C132E
:10278400134326F022066A686D6942EA0512324351
:10279400886021688B6123681A62012384F84630BB
:1027A40084F83E3084F83F3084F8423084F8433073
:1027B40084F83D30002070BD80F83C30FEF7A8FA64
:1027C400AFE701207047000030B4036A026A22F0C8
:1027D400100202624468826922F4E6420D6842EA09
:1027E400052223F020038D6843EA0513114DA84206
:1027F40003D005F50065A84206D123F08003CD6817
:1028040043EA051323F040030A4DA84203D005F51B
:102814000065A84207D124F440644D6944EA850464
:102824008D6944EA8504446082614A688263036274
:1028340030BC7047002C014038B590F83C30012B77
:1028440066D004460D46012380F83C300C2A5AD841
:10285400DFE802F0075959591B5959593059595948
:1028640044000068FFF7F2FC2268936943F0080310
:1028740093612268936923F0040393612268936946
:1028840029690B43936100203EE00068FFF79CFF39
:102894002268936943F4006393612268936923F483
:1028A4008063936122689369296943EA01239361F0
:1028B400002029E00068FFF701FD2268D36943F096
:1028C4000803D3612268D36923F00403D361226827
:1028D400D36929690B43D361002015E00068FFF731
:1028E40025FD2268D36943F40063D3612268D36968
:1028F40023F48063D3612268D369296943EA0123FD
:10290400D361002000E00120002384F83C3038BD6E
:102914000220FCE710B4846824F47F4C42EA0322CA
:102924000A4342EA0C02826010BC704790F83C30C3
:10293400012B78D010B50446012380F83C300223E3
:1029440080F83D300268936823F47F4323F07703D3
:1029540093600B68602B4CD023D8402B54D011D8F3
:10296400202B03D00AD80BB1102B05D119462068AF
:10297400FFF729FD002028E0012026E0302BF5D0C8
:10298400012022E0502B0AD1CA6849680068FFF789
:10299400F5FC50212068FFF716FD002015E001200A
:1029A40013E0B3F5805F3AD0B3F5005F14D0702B19
:1029B40037D1CB684A6889680068FFF7ABFF2268A3
:1029C400936843F0770393600020012384F83D303B
:1029D400002384F83C3010BDCB684A6889680068DD
:1029E400FFF798FF2268936843F4804393600020C4
:1029F400EBE7CA6849680068FFF7D2FC60212068E9
:102A0400FFF7E1FC0020E0E7CA6849680068FFF7C7
:102A1400B5FC40212068FFF7D6FC0020D5E7002054
:102A2400D3E70120D1E70220704701F01F014FF0E6
:102A3400010C0CFA01FC036A23EA0C030362036A27
:102A44008A4013430362704710B5044608460029C0
:102A54003AD194F83E30DBB2013B18BF0123002B7E
:102A640066D1002849D1022384F83E300122014670
:102A74002068FFF7DAFF23682F4A934203D002F558
:102A84000062934203D15A6C42F400425A642368B0
:102A9400294A934241D002F5006293423DD0B3F1FA
:102AA400804F3AD0A2F59832934236D002F5806234
:102AB400934232D002F5806293422ED01A6842F0DB
:102AC40001021A60002032E0042908D008290DD040
:102AD40094F84130DBB2013B18BF0123BFE794F8FF
:102AE4003F30DBB2013B18BF0123B8E794F8403014
:102AF400DBB2013B18BF0123B1E7042805D0082845
:102B040007D0022384F84130B0E7022384F83F3031
:102B1400ACE7022384F84030A8E79A6802F0070281
:102B2400062A07D01A6842F001021A60002010BD7C
:102B34000120FCE70020FAE7002C014038B50446E8
:102B440090F83E00C0B294F83F3094F84220D2B2DC
:102B540094F843C00D46B1B9012849D1012A48D19E
:102B6400022384F83E3084F842307DB3042D39D0FA
:102B7400012200212068FFF758FF01220421206868
:102B8400FFF753FF27E0DBB25FFA8CFC042912D075
:102B9400012833D1012B2CD1012A31D1BCF1010FF1
:102BA40030D1022384F83E3084F83F3084F8423038
:102BB40084F84330D9E7012B1CD1BCF1010F1BD1A0
:102BC400022384F83F3084F84330CEE70122002109
:102BD4002068FFF72AFF2268136843F0010313609B
:102BE400002006E0012204212068FFF71EFFF2E71F
:102BF400012038BD0120FCE71846FAE70120F8E778
:102C04001846F6E71046F4E790F83C20012A34D041
:102C140010B40346012280F83C20022280F83D20B3
:102C240002685068946820F0700C086840EA0C0050
:102C340050601A681248824212D000F50060824245
:102C44000ED0B2F1804F0BD0A0F59830824207D05D
:102C540000F58060824203D000F58060824204D196
:102C640024F08004496821439160012283F83D20C7
:102C7400002083F83C0010BC70470220704700BF5E
:102C8400002C0140024690F83C30012B21D0012356
:102C940080F83C30CB6823F440738868034323F402
:102CA40080634868034323F400630868034323F400
:102CB40080530869034323F400534869034323F40E
:102CC4008043C9690B4311684B64002082F83C00BF
:102CD40070470220704770477047026802F10C0386
:102CE40053E8003F23F0C0030C3242E800310029CE
:102CF400F3D1202380F841307047026802F10C03BD
:102D040053E8003F23F490730C3242E80031002969
:102D1400F3D1026802F1140353E8003F23F00103E6
:102D2400143242E800310029F3D1036B012B05D0A2
:102D3400202380F84230002303637047026802F1C5
:102D44000C0353E8003F23F010030C3242E8003137
:102D54000029F3D1ECE790F84130DBB2212B01D00C
:102D6400022070478368B3F5805F17D0036A5A1C4A
:102D740002621A7803685A60C38C9BB2013B9BB20F
:102D8400C3844BB90268D36823F08003D36002681C
:102D9400D36843F04003D360002070470369002BDD
:102DA400E4D1036A1B880268C3F308035360036A0F
:102DB40002330362E0E7000010B5044602681369B9
:102DC40023F44053C1680B431361836802691343BE
:102DD40042691A430168CB6823F4B05323F00C030F
:102DE4001343CB600268536923F4407381690B4336
:102DF40053610268134B9A4220D0FFF707FA024648
:102E040002EB820202EB820263689B00B2FBF3F2E4
:102E14000D48A0FB02314909642303FB11231B0164
:102E24003233A0FB03035B0903F0F00202EB01124F
:102E340003F00F03216813448B6010BDFFF7F6F90C
:102E44000246DDE7003801401F85EB5160B310B541
:102E5400044690F8413013B3242384F841302268A7
:102E6400D36823F40053D3602046FFF7A5FF2268FC
:102E7400136923F4904313612268536923F02A03EE
:102E840053612268D36843F40053D3600020606424
:102E9400202384F8413084F84230606310BD80F808
:102EA4004030FEF749F9D7E70120704738B513469B
:102EB40090F84120D2B2202A2FD1044600292ED0E6
:102EC4000BB9012038BD01628384C38400224264AB
:102ED400212084F84100A06B124D8562A06B124D35
:102EE400C562A06B114D0563A06B42632268043276
:102EF400A06BFEF7DBFA23686FF040021A602268C9
:102F040002F1140353E8003F43F08003143242E813
:102F140000310029F3D10020D4E70220D2E70120B8
:102F2400D0E700BF352F00089D2F0008A72F000809
:102F340008B50346406A1B681B6813F0200F1AD1BA
:102F44000023C384026802F1140353E8003F23F012
:102F54008003143242E800310029F3D1026802F1FF
:102F64000C0353E8003F43F040030C3242E80031C5
:102F74000029F3D108BDFEF7A9F8FBE708B50168FD
:102F8400CA6822F04002CA60202280F84120FEF77D
:102F94009DF8002008BD704708B5406AFFF7FBFFA5
:102FA40008BD10B5446A23685A6994F84130DBB20D
:102FB400212B10D023685A6902F0400294F8423061
:102FC400DBB2222B11D0636C43F010036364204600
:102FD400FEF78AF810BD02F08002002AEAD000232E
:102FE400E3842046FFF779FEE4E7002AEBD00023D0
:102FF400E3852046FFF781FEE5E708B5406A002334
:10300400C385C384FEF770F808BD704790F842305A
:10301400DBB2222B69D18368B3F5805F4FD0826A1B
:10302400B3F5805F04D0002B56D10369002B53D134
:1030340003685B681370836A01338362C38D9BB238
:10304400013B9BB2C385002B51D100B583B002680C
:10305400D36823F02003D3600268D36823F4807319
:10306400D3600268536923F001035361202380F87D
:10307400423000234363036B012B33D100230363EA
:10308400026802F10C0353E8003F23F010030C32F2
:1030940042E800310029F3D103681A6812F0100FD6
:1030A40006D0002201921A6801925B680193019B89
:1030B400818DFFF7AAFF002003B05DF804FB0269CD
:1030C400002AACD1826A03685B68C3F308031380E7
:1030D400836A02338362B1E703685B6803F07F03AA
:1030E4001370A8E7FDF79EFCE5E702207047002077
:1030F4007047000010B582B0044602681368D068B7
:10310400516913F00F0F09D113F0200F0CD010F0F8
:10311400200F09D02046FFF779FF16E011F00101D6
:1031240015D110F4907F12D1216B012979D013F0BD
:10313400800F03D010F0800F40F0138113F0400F84
:1031440003D010F0400F40F0108102B010BD13F016
:10315400010F06D010F4807F03D0626C42F00102AC
:10316400626413F0040F04D019B1626C42F00202DD
:10317400626413F0020F04D019B1626C42F00402CD
:10318400626413F0080F07D010F0200F00D119B1BA
:10319400626C42F008026264626C002AD5D013F0BB
:1031A400200F02D010F0200F29D123685B6903F0AF
:1031B4004003626C12F0080F00D163B32046FFF79E
:1031C4009CFD23685B6913F0400F20D0226802F154
:1031D400140353E8003F23F04003143242E8003163
:1031E4000029F3D1E36B73B1624A5A63E06BFEF7D3
:1031F400BBF90028A9D0E06B436B9847A5E72046AC
:10320400FFF704FFD1E72046FDF76EFF9DE7204658
:10321400FDF76AFF99E72046FDF766FF0023636424
:1032240093E713F0100F82D010F0100F3FF47FAF2C
:10323400002301931368019353680193019B53691D
:1032440013F0400F51D0E26B13685B689BB2002B04
:103254003FF47BAFA18D99427FF677AFE385936905
:10326400202B37D0226802F10C0353E8003F23F4EB
:1032740080730C3242E800310029F3D1226802F154
:10328400140353E8003F23F00103143242E80031F1
:103294000029F3D1226802F1140353E8003F23F01C
:1032A4004003143242E800310029F3D1202384F88A
:1032B400423000232363226802F10C0353E8003FE9
:1032C40023F010030C3242E800310029F3D1E06B03
:1032D400FEF727F902236363A18DE38D9BB2C91A1C
:1032E40089B22046FFF791FE2FE7A18DE38D9BB2B3
:1032F400C91A89B2E38D9BB2002B3FF426AF002993
:103304003FF423AF226802F10C0353E8003F23F497
:1033140090730C3242E800300028F3D1226802F1A5
:10332400140353E8003F23F00103143242E8003051
:103334000028F3D1202384F8423000232363226839
:1033440002F10C0353E8003F23F010030C3242E86F
:1033540000300028F3D1022363632046FFF755FEB3
:10336400F3E62046FFF7F7FCEFE62046FFF706FEFC
:10337400EBE600BFFF2F000881628285C28500232F
:103384004364222380F84230036923B10268D3687E
:1033940043F48073D3600268536943F001035361BB
:1033A4000268D36843F02003D3600020704708B557
:1033B40090F84230DBB2202B08D149B10AB9012080
:1033C40008BD00230363FFF7D7FFF9E70220F7E7FF
:1033D4000120F5E703460244934200D1704703F805
:1033E400011BF9E770B500260C4D0D4C641BA410AD
:1033F400A64209D100F080F800260A4D0A4C641B4D
:10340400A410A64205D170BD55F8043B9847013677
:10341400EEE755F8043B98470136F2E740350008DB
:1034240040350008403500084835000870477047AB
:10343400024B13B1024800F005B8704700000000C9
:1034440055340008002301461A46184600F014B803
:1034540038B5074D074C641BA4101CB9BDE83840AF
:1034640000F050B8013C55F824309847F5E700BF08
:10347400483500084C3500082DE9F047DFF86CA00A
:103484000646DAF8000098460F469146FFF7CEFF4D
:10349400174B1C680CB9174C1C606568DAF80000FF
:1034A4001F2D05DDFFF7C3FF4FF0FF30BDE8F087A8
:1034B4009EB1012204EB8501C1F88890D4F88831CB
:1034C400AA401343C4F88831022EC1F8088102BF10
:1034D400D4F88C311343C4F88C316B1C023563600F
:1034E40044F82570FFF7A3FF0020DFE71C0000204D
:1034F400C0030020C4030020F8B500BFF8BC08BC1A
:103504009E467047F8B500BFF8BC08BC9E4670479D
:10351400000000000102030400000000000000009D
:10352400010203040607080901020000020304055E
:0C353400060708090A0B0C0D0E0F101002
:083540003534000809020008FF
:04354800E501000891
:10354C0064000000640000006400000064000000DF
:10355C0000127A000100000010000000BC030020E3
:04000005080011F9E5
:00000001FF
